:20007800AF83E582900000F0EFA3F03099FD900000E0FEA3E0FF8E99C2998E828F83221041
:20009800980280FBAE997F008E828F832274F6C0E07413C0E012110C158115817427C0E062
:2000B8007414C0E012110C15811581120097E5828583F024D0FEE5F034FFFFC007C006C057
:2000D80006C0077478C0E07414C0E012110CE58124FCF581120097E5828583F024D0FCE57F
:2000F800F034FFFDC005C004C004C0057486C0E07414C0E012110CE58124FCF58112009720
:20011800E5828583F024D0FAE5F034FFFBC003C002C002C0037494C0E07414C0E012110C6E
:20013800E58124FCF581120097E5828583F024D0F8E5F034FFF9C001C000C000C00174A29E
:20015800C0E07414C0E012110CE58124FCF581D000D001D002D003D004D005D006D0079068
:2001780013BAEEF0EFA3F09003E8C005C004C003C002C001C0001213BAAE82AF83D000D04F
:2001980001D002D003D004D0059013BAECF0EDA3F0900064C007C006C003C002C001C000B8
:2001B8001213BAAC82AD83D000D001D002D003D006D007EC2EFEED3FFF9013BAEAF0EBA3EF
:2001D800F090000AC007C006C001C0001213BAAC82AD83D000D001D006D007EC2EFEED3FA0
:2001F800FFE82EFEE93FFFC007C006C006C00774B1C0E07414C0E012110CE58124FCF5817B
:20021800D006D0078E048F05C3EC9430ED940040508E048F05C374C09C74129D40438E047E
:200238008F05EC540F703AC007C00674C1C0E07414C0E012110C15811581D006D007C007C0
:20025800C006C006C00774B1C0E07414C0E012110CE58124FCF581D006D0078E828F8380CC
:200278001274E4C0E07414C0E012110C158115810200B422740DC0E07415C0E012110C1573
:20029800811581120097E5828583F024D0FEE5F034FFFFC007C006C006C0077434C0E07458
:2002B80015C0E012110CE58124FCF581120097E5828583F024D0FCE5F034FFFDC005C004C0
:2002D800C004C0057445C0E07415C0E012110CE58124FCF581120097E5828583F024D0FADA
:2002F800E5F034FFFBC003C002C002C0037456C0E07415C0E012110CE58124FCF581D00249
:20031800D003D004D005D006D0079013BAEEF0EFA3F0900064C005C004C003C0021213BAFE
:20033800AE82AF83D002D003D004D0059013BAECF0EDA3F090000AC007C006C003C002127E
:2003580013BAAC82AD83D002D003D006D007EC2EFEED3FFFEA2EFEEB3FFFC007C006C00633
:20037800C0077467C0E07415C0E012110CE58124FCF581D006D0078E048F05C3EC941EEDAE
:20039800940040478E048F05C3742C9C74019D403AC007C00674C1C0E07414C0E012110CC0
:2003B80015811581D006D007C007C006C006C0077467C0E07415C0E012110CE58124FCF5E4
:2003D80081D006D0078E828F83801274E4C0E07414C0E012110C1581158102028C221200E4
:2003F80097E5828583F024D0FEE5F034FFFFC007C006C006C0077488C0E07415C0E01211F4
:200418000CE58124FCF581120097E5828583F024D0FCE5F034FFFDC005C004C004C0057439
:2004380045C0E07415C0E012110CE58124FCF581D004D005D006D0079013BAEEF0EFA3F058
:2004580090000AC005C0041213BAE5828583F0D004D0052CFCED35F0FDC005C004C004C036
:1B04780005749CC0E07415C0E012110CE58124FCF581D004D0058C828D832277
:2013F60057656C636F6D6520746F202055415254206D656D6F727920616C6C6F636174696A
:201416006F6E206170706C69636174696F6E0A0D00456E74657220612068656170207369D5
:201436007A652028646967697420627920646967697429206265747765656E2034382061F2
:201456006E642034383030207468617420697320646976697369626C652062792031360D81
:201476000A0064696769745F313D2025640D0A0064696769745F323D2025640D0A00646942
:201496006769745F333D2025640D0A0064696769745F343D202564200D0A004865617073B1
:2014B600697A65203D2025640A0D00596F75206861766520676976656E20612076616C692A
:2014D6006420686561702073697A650D0A00596F757220686561702073697A652073706532
:2014F60063696669656420697320696E76616C69642E200A0D2000456E74657220612068E3
:201516006561702073697A65206265747765656E20333020616E64203330300D0A00206476
:20153600696769745F31203D202564200D0A002064696769745F32203D202564200D0A001C
:201556002064696769745F33203D202564200D0A000A0D4E657720686561702073697A659B
:2015760020656E7465726564206973202564200A0D00200A0D2064696769745F31203D20FD
:201596002564200D0A000A0D54686520627566666572206E756D6265722070726F76696446
:1615B600656420746F2064656C657465206973202564200A0D00E4
:16005F00900070E4F0A3F0900072F0A3F09000747402F0E4A3F0BE
:20049300AF83E582900002F0EFA3F0900002E0FEA3E0FF907FF0EEF0EFA3F022AF83E582A0
:2004B300900004F0EFA3F0900004E0FEA3E0FFBE2B05BF00028027BE2D06BF0003020649D5
:2004D300BE3D06BF0003020AA4BE3F06BF00030207C3BE4006BF0003020B85020CAE900061
:2004F3005212049374CCC0E07415C0E012110C1581158112028CAE82AF8390006EEEF0EFBD
:20051300A3F0900070E0FCA3E0FDEC2CFCED33FDEC243CFCED3413FD8E828F83C005C00484
:20053300121251AE82AF83D004D0058C828D83EEF0EFA3F0900070E0FEA3E0FFEE2EFCEF43
:2005530033FDEC243CF582ED3413F583E0FCA3E04C701274E6C0E07415C0E012110C1581D4
:200573001581020CAE74022EFEE43FFFC006C007742DC0E07416C0E012110CE58124FCF5B0
:2005930081900070E0FEA3E0FF74022EFEE43FFF90006EE0C0E0A3E0C0E0C006C007745DA4
:2005B300C0E07416C0E012110CE58124FAF581900072E0FEA3E0FFEE2EFEEF33FFEE243C4A
:2005D300F582EF3413F583E0FEA3E0FF900070E0FCA3E0FD74022CFCE43DFDC006C007C01E
:2005F30004C0057481C0E07416C0E012110CE58124FAF581900074E0FEA3E0FFEE2EFEEFCA
:2006130033FFEE2406FEEF3400FF90006EE0FCA3E0FD8E828F83ECF0EDA3F0900074E0247D
:2006330001F0A3E03400F0900070E02401F0A3E03400F0020CAE90005312049374A3C0E074
:200653007416C0E012110C158115811203F6AE82AF8390006CEEF0EFA3F0EE4F701274CF37
:20067300C0E07416C0E012110C15811581020CAEBE014CBF004990133AE0FCA3E0FD7B00BF
:200693008C828D838BF0120FB590133AE0FCA3E0FDC004C00574F7C0E07416C0E012110CB2
:2006B300E58124FCF58190133AE4F0A3F07409C0E07417C0E012110C15811581020CAE8EFA
:2006D300048F05C374019C74808DF063F08095F040030207B1900070E0FCA3E0FD74022CD7
:2006F300FCE43DFD8E028F03C3EC9AED64808BF063F08095F050030207B1C006C007741D93
:20071300C0E07417C0E012110CE58124FCF58190006CE0FEA3E01E1EC2D575F002EE30E734
:2007330004B2D5F404A430D50AF42401C5F0F43400C5F0243CF582741335F0F583E0FEA349
:20075300E0FF7D008E828F838DF0120FB590006CE0C0E0A3E0C0E07441C0E07417C0E01284
:20077300110CE58124FCF58190006CE0FEA3E0FF1E1EC2D575F002EE30E704B2D5F404A48B
:2007930030D50AF42401C5F0F43400C5F0243CF582741335F0F583E4F0A3F0020CAE7458A2
:2007B300C0E07417C0E012110C15811581020CAE900054120493901338E0F5F0A3E045F05F
:2007D3007003020891749FC0E07417C0E012110C158115819013A0E0C0E0A3E0C0E074C99C
:2007F300C0E07417C0E012110CE58124FCF5819013BCE0FEA3E0FF9013A0E0FCA3E0FDEEA4
:200813002CFEEF3DFFC006C00774F2C0E07417C0E012110CE58124FCF5819013BCE0C0E0A8
:20083300A3E0C0E07419C0E07418C0E012110CE58124FCF5819013C0E0C0E0A3E0C0E07484
:2008530038C0E07418C0E012110CE58124FCF5819013C0E0FEA3E0FF9013BCE0FCA3E0FDD8
:20087300ECC39EFEED9FFFC006C007745DC0E07418C0E012110CE58124FCF581800F747ABD
:20089300C0E07418C0E012110C1581158190133AE0F5F0A3E045F0607274AEC0E07418C0E4
:2008B300E012110C158115819013A2E0C0E0A3E0C0E074D8C0E07418C0E012110CE5812431
:2008D300FCF5819013BCE0FEA3E0FF9013A2E0FCA3E0FDEE2CFEEF3DFFC006C0077401C02E
:2008F300E07419C0E012110CE58124FCF5819013BCE0C0E0A3E0C0E07428C0E07419C0E042
:2009130012110CE58124FCF581800F743BC0E07419C0E012110C158115817E027F009000A4
:2009330070E0FCA3E0FD74022CFCE43DFDC3EC9EED64808FF063F08095F05003020A868EB4
:2009530005ED24FEFCC2D575F002EC30E704B2D5F404A430D50AF42401C5F0F43400C5F092
:20097300243CF582741335F0F583E0FBA3E0FC4B7003020A67C007C006C005C006C007748B
:200993006FC0E07419C0E012110CE58124FCF581D005D006D0071D1DC2D575F002ED30E71F
:2009B30004B2D5F404A430D50AF42401C5F0F43400C5F0243CFC741335F0FD8C828D83E040
:2009D300FAA3E0FBC007C006C005C004C002C0037498C0E07419C0E012110CE58124FCF56E
:2009F30081D004D005D006D0078C828D83E0FCA3E0FDEE2EFAEF33FBEA2406FAEB3400FB38
:200A13008A828B83E0F8A3E0F9E82CFCE93DFDC007C006C003C002C004C00574AFC0E07450
:200A330019C0E012110CE58124FCF581D002D0038A828B83E0FAA3E0FBC002C00374C7C028
:200A5300E07419C0E012110CE58124FCF581D006D0078017C007C00674D9C0E07419C0E060
:200A730012110C15811581D006D0070EBE00010F0209319013C0E0C0E0A3E0C0E07419C0F0
:200A9300E0741AC0E012110CE58124FCF581020CAE900055120493743FC0E0741AC0E0122D
:200AB300110C1581158190006AE4F0A3F090006AE0FEA3E0FF9013C0E0FCA3E0FDC3EE9C13
:200AD300EF9D4003020CAEEE4F7031901338E0FCA3E0FDEE2CFCEF3DFD8C828D83E0FB7AB1
:200AF30000C003C002C004C0057458C0E0741AC0E012110CE58124FAF5818067740F5EFC4E
:200B13007D004D602B901338E0FAA3E0FBEE2AF582EF3BF583E0FB7A00C003C0027462C099
:200B3300E0741AC0E012110CE58124FCF5818033EC4D702F901338E0FCA3E0FDEE2CFEEFA0
:200B53003DFF8E828F83E0FD7C00C005C004C006C0077466C0E0741AC0E012110CE5812454
:200B7300FAF58190006AE02401F0A3E03400F0020AC09000561204937473C0E0741AC0E04C
:200B930012110C15811581901338E0FEA3E0FF7D008E828F838DF0120FB5901338E4F0A368
:200BB300F09013C0F0A3F07485C0E0741AC0E012110C1581158174A8C0E0741AC0E012111D
:200BD3000C1581158190133AE0FEA3E0FF7D008E828F838DF0120FB590133AE4F0A3F074E3
:200BF300BDC0E0741AC0E012110C158115819000767402F0E4A3F0900070E0FEA3E0FF7445
:200C1300022EFEE43FFF900076E0FCA3E0FDC3EC9EED9F4003020CAEC004C00574D3C0E0C7
:200C3300741AC0E012110CE58124FCF581900076E0FEA3E0FFEE2EFEEF33FFEE243CF582E2
:200C5300EF3413F583E0FEA3E0FF7D008E828F838DF0120FB5900070E0FEA3E0FFEE2EFE07
:200C7300EF33FFEE243CF582EF3413F583E4F0A3F0900076E0C0E0A3E0C0E074E9C0E0744C
:1C0C93001AC0E012110CE58124FCF581900076E02401F0A3E03400F0020C0A2284
:2015CC00416C6C6F636174696E672061206E6577206275666665720D0A000A0D204D656D0F
:2015EC006F727920416C6C6F636174696F6E20666F722042756666657220256420466169A5
:20160C006C6564200A0D20507265737320272B2720746F2054727920616761696E200A0DD3
:20162C00000A0D4D656D6F727920416C6C6F636174696F6E205375636365737366756C2088
:20164C00666F7220427566666572202564200A0D000A0D42756666657220256420616C6C6A
:20166C006F6361746564206F662073697A65202564200A0D000A0D41646472657373206FD2
:20168C0066206275666665722025642069732030782578200A0D00506C6561736520656EB0
:2016AC0074657220746865206E756D626572206F662062756666657220746F2064656C657D
:2016CC007465000A0D20536F7272792C2042756666657220302063616E6E6F74206265202F
:2016EC0064656C65746564210A0D000A0D2042756666657220313E2025640A0D00427566D2
:20170C0066657220312064656C657465642E0D0A000A0D2044656C6574696E672062756633
:20172C0066657220256420696E2070726F67726573730A0D000A0D2042756666657220253E
:20174C006420697320667265650A0D000A0D456E74657220612076616C69642062756666BB
:20176C006572206E756D6265720A0D20507265737320272D2720746F2064656C6574652048
:20178C00616E792076616C6964206275666665720A0D000A0D203C3C3C3C3C3C4845415057
:2017AC00205245504F5254206F66204275666665725F303E3E3E3E3E3E200D0A000A0D530E
:2017CC0074617274696E672041646472657373206F66204275666665725F302069732030D4
:2017EC007825780A0D000A0D456E64696E672041646472657373206F6620427566666572F0
:20180C005F3020697320307825780A0D000A0D4275666665722053697A65206F66204275BD
:20182C00666665725F302025640A0D000A0D53746F726564206368617261637465727320C2
:20184C00696E20627566666572203D2025640A0D000A0D467265652053706163657320694D
:20186C006E206275666665722025640A0D000A0D427566666572203020697320656D707401
:20188C0079202C20736F206E6F207265706F727420697320617661696C61626C65210D0AC7
:2018AC0020000A0D203C3C3C3C3C3C48454150205245504F5254206F6620427566666572D4
:2018CC005F313E3E3E3E3E3E200D0A000A0D5374617274696E672041646472657373206FE9
:2018EC0066204275666665725F3120697320307825780A0D000A0D456E64696E67204164C3
:20190C006472657373206F66204275666665725F3120697320307825780A0D000A0D427555
:20192C00666665722053697A652025640A0D000A0D427566666572203120697320656D705D
:20194C007479202C20736F206E6F207265706F727420697320617661696C61626C65210D9C
:20196C000A20000A0D3C3C3C3C3C3C48454150205245504F5254206F662042756666657229
:20198C005F25643E3E3E3E3E3E0A0D000A0D53746172742041646472657373203078257858
:2019AC000A0D000A0D456E64696E67204164647265737320307825780A0D000A0D42756602
:2019CC006665722053697A6525640A0D000A0D416C6C204275666665727320637265617417
:2019EC0065642061726520656D7074792C20736F206E6F2068656170207265706F727420A6
:201A0C00617661696C61626C65210D0A000A0D4E756D626572206F662073746F7261676557
:201A2C002063686172616374657273203D2025640A0D000A0D436F6E74656E747320696EE1
:201A4C002042756666657220300A0D00307825783E3E2025780020257800307825783E3E9D
:201A6C00202578200A0D000A0D467265652042756666657220300A0D000A0D4275666665ED
:201A8C007220302077696C6C206E6F77206265636F6D6520656D7074790A0D000A0D46726C
:201AAC006565696E672042756666657220310A0D000A0D42756666657220312069732065ED
:201ACC006D7074790A0D000A0D46726565696E67206275666665725F25640A0D000A0D4250
:121AEC007566666572202564206672656564200A0D00CA
:021AFE00C01214
:03000000020006F5
:0300750002000383
:03000300020CC824
:200CAF00438E0C538EFD90000022438920439850438840758DFDD29922120CB91200A5AECE
:200CCF0082AF839013BCEEF0EFA3F08E828F83121251AE82AF83901338EEF0EFA3F08E04CC
:200CEF008F059013A0ECF0EDA3F0EE4F602A7400C0E0741BC0E012110C158115819013A00A
:200D0F00E0C0E0A3E0C0E07426C0E0741BC0E012110CE58124FCF5819013BCE0FEA3E0FFCE
:200D2F008E828F83121251AE82AF8390133AEEF0EFA3F08E048F059013A2ECF0EDA3F0EEB9
:200D4F004F602A744FC0E0741BC0E012110C158115819013A2E0C0E0A3E0C0E07474C0E04E
:200D6F00741BC0E012110CE58124FCF5817E007F00C007C006749DC0E0741BC0E012110C71
:200D8F001581158174D1C0E0741BC0E012110C158115817405C0E0741CC0E012110C15819B
:200DAF0015817439C0E0741CC0E012110C15811581746DC0E0741CC0E012110C15811581AA
:200DCF0074A1C0E0741CC0E012110C1581158174D5C0E0741CC0E012110C158115817409D3
:200DEF00C0E0741DC0E012110C15811581749DC0E0741BC0E012110C15811581743DC0E02C
:200E0F00741DC0E012110C15811581120097AC82AD839013A4ECF0EDA3F09013BEE0240127
:200E2F00F0A3E03400F08C828D831200789013A4E0C0E0A3E0C0E07455C0E0741DC0E012CE
:200E4F00110CE58124FCF581D006D0079013BCE0FCA3E0FD8E028F03C3EA9CEB9D400302CA
:200E6F000F1C9013A4E0FCA3E0FDC3EC9441ED648094805003020F1CC3745A9C74808DF00E
:200E8F0063F08095F05003020F1C9013C0E02401F0A3E03400F0901338E0FAA3E0FBEE2A21
:200EAF00F582EF3BF583ECF0901338E0FCA3E0FDEE2CFCEF3DFD9013A6ECF0EDA3F0E4A38C
:200ECF00F00EBE00010FC007C0069013A6E0C0E0A3E0C0E0A3E0C0E07481C0E0741DC0E0D5
:200EEF0012110CE58124FBF581D006D007C007C006C006C00774AEC0E0741DC0E012110CD0
:200F0F00E58124FCF581D006D007020D809013BCE0FCA3E0FD8E028F03EAB5046EEBB505F7
:200F2F006A9013A4E0FCA3E0FDBC2D05BD0002805ABC2B05BD00028052BC3F05BD00028052
:200F4F004ABC4005BD00028042BC3D05BD0002803AC3EC9461ED64809480402F747A9C7449
:200F6F00808DF063F08095F040218C828D83C007C00612007874BBC0E0741DC0E012110C48
:200F8F0015811581D006D007020D809013A4E0FCA3E0FD8C828D83C007C0061204AFD006F1
:060FAF00D007020D8022B4
:201B00000D0A4D616C6C6F63696E67207375636365737366756C20666F7220427566666549
:201B20007230200D0A000D0A5374617274696E672061646472657373206F662062756666AB
:201B40006572203020697320307825780D0A000A0D4D616C6C6F63696E6720737563636506
:201B6000737366756C20666F7220427566666572310D0A000A0D5374617274696E6720612B
:201B8000646472657373206F6620627566666572203120697320307825780D0A007C2A2A98
:201BA0002A2A2A2A2A2A2A2A2A2A2A2A2A2A2A2A2A2A2A2A2A2A2A2A2A2A2A2A2A2A2A2AE5
:201BC0002A2A2A2A2A2A2A2A2A2A2A2A2A7C0A0D007C202043686F6F736520612063686166
:201BE0007261637465722066726F6D207468652062656C6F77206F7074696F6E732020206A
:201C0000207C0A0D007C2020412D5A20207C2043686172616374657220746F2073746F7239
:201C20006520696E20746865206275666665722020202020207C0A0D007C20202B202020B3
:201C4000207C20416C6C6F636174652061206E65772062756666657220202020202020201E
:201C60002020202020202020207C0A0D007C20202D202020207C2044656C657465206120B8
:201C800062756666657220202020202020202020202020202020202020202020207C0A0D57
:201CA000007C20203F202020207C20446973706C6179207468652068656170207265706F42
:201CC00072742020202020202020202020202020207C0A0D007C20203D202020207C204452
:201CE0006973706C617920636F6E74656E7473206F66204275666665725F30202020202026
:201D000020202020207C0A0D007C202040202020207C204672656520616C6C20746865201C
:201D2000627566666572732020202020202020202020202020202020207C0A0D000D0A4587
:201D40006E74657220746865206368617261637465720D0A000A0D546865204153434949C4
:201D6000206F662074686520696E70757420636861726163746572206973202564200D0A14
:201D800000546865206368617261637465722069732073746F72656420696E207468652030
:201DA0004275666665722025640D0A257000436F756E74203D2025640D0A00427566666566
:201DC000725F302069732066756C6C2C20736F206E6F206D6F7265206368617261637465DA
:1F1DE00072732063616E2062652073746F72656420746F2069740D0A00000000000000FE
:200FB500AFF0AE83E5829013A9F0EEA3F0EFA3F09013A9E0FDA3E0FEA3E09013A9E0F5F068
:200FD500A3E045F07001229013AEE4F0A3F09013B2E0FBA3E0FC9013ACEBF0ECA3F09013FE
:200FF500B074B2F07413A3F09013ACE0FBA3E0FC4B60418B018C02C003C0048D008E04C3E4
:20101500E998EA9CD004D003502A9013AEEBF0ECA3F074022BFBE43CFC9013B0EBF0ECA373
:20103500F08B828C83E0FBA3E0FC9013ACEBF0ECA3F080B49013ACE0FEA3E0FF9013A9E07D
:20105500FBA3E0FCA3E0EB24FEFBEC34FFFC74022BFAE43CFD8A828D83EEF0EFA3F0901384
:20107500B0E0F8A3E0F988828983EBF0ECA3F08B828C83E0F8A3E0F9EEB50033EFB5012FCD
:2010950088828983A3A3E0FEA3E0FF8A828D83EEF0EFA3F08B828C83E0FEA3E0FF8E828FE8
:2010B50083E0FEA3E0FF8B828C83EEF0EFA3F09013AEE0FEA3E0FF4E603C8E828F83E0F827
:2010D500A3E0F9E8B5032FE9B5042B8B828C83E0FBA3E0FC8E828F83EBF0ECA3F074022E4D
:1710F500FEE43FFF8A828D83E0FAA3E0FD8E828F83EAF0EDA3F022B0
:06003500E478FFF6D8FD9F
:200013007906E94400601B7A01901DF978BC75A013E493F2A308B8000205A0D9F4DAF275A8
:02003300A0FF2C
:20110C00C00A85810AE50A24FDF8868318868218E493A324DB600C242560051211FA80F0E0
:20112C00021212D2D5E493A3C083C082B4731486F0188683188682181213DA6054A31211B4
:20114C00FA80F5B4630818E6181211FA8043B46417E630E74618E6F42401F608E6F434006A
:20116C00F6742D1211FA8033B4782D868318868218E41211EBE5831211EAE5831211EBE5A0
:20118C00821211EAE5821211EB30D50574301211FAD082D08302111CB475F6E6FA18E6F9AA
:2011AC00187C107D271211D5FF7CE87D031211D5C4F5837C647D001211D54283E975F00A5A
:2011CC0084C445F0F582EF80A97B000BC3E99CF9EA9DFA50F61BE92CF9EA3DFAEB22C454FA
:2011EC000F700320D51FC2D52490D43440D4C083C082C0F0F582E8C0E0120078D0E0F8D0B0
:09120C00F0D082D08322D00A2226
:201215009013B27478F07400A3F0901AFEE493FE740193FF1EBEFF011FEE2478FEEF3400B7
:20123500FF900078EEF0EFA3F09013B2E0FEA3E0FF8E828F83A3A3E4F0A3F022AF83E582F3
:201255009013B4F0EFA3F09013B2E0F5F0A3E045F070031212159013B4E0FEA3E0FF4E60CD
:201275000E74022EFCE43FFDC3EC9EED9F5004900000229013B474022EF0E43FA3F0901368
:20129500B4E0FEA3E0FFC3EE9404EF940050099013B47404F0E4A3F09013B2E0FEA3E0FF15
:2012B5009013B6EEF0EFA3F09013B874B2F07413A3F09013B6E0FEA3E0FF4E70030213B690
:2012D5008E828F83E0FCA3E0FD8C028D038E008F01EAC398FAEB99FB8A008B019013B4E034
:2012F500F508A3E0F509C3E89508E99509500302139374042508F8E43509F9C3EA98EB9910
:20131500404C8E028F03E5082AFAE5093BFB8A828B83ECF0EDA3F074022AFCE43BFD8E8297
:201335008F83A3A3E0F8A3E0F98C828D83E8F0E9A3F09013B8E0FCA3E0FD8C828D83EAF0CB
:20135500EBA3F08E828F83EAF0EBA3F0801C9013B8E0FCA3E0FD8E828F83A3A3E0FAA3E068
:20137500FB8C828D83EAF0EBA3F09013B6E0FCA3E0FD74022CFCE43DFD8C828D83227402C0
:201395002EFEE43FFF9013B8EEF0EFA3F08E828F83E0FEA3E0FF9013B6EEF0EFA3F00212E0
:0513B500C790000022BA
:2013BA00AA83AB828BF09013BAE0A4F8A9F08AF0E0A429F98BF0A3E0A429F583888222221B
:20003B007800E84400600A790075A000E4F309D8FC78BCE84413600C7914900000E4F0A3E2
:04005B00D8FCD9FAFA
:0D00060075810A120CAFE582600302000351
:1C13DA0020F71430F6148883A88220F507E6A88375830022E280F7E49322E02222
:00000001FF
