:03000000020006F5
:03005F0002000399
:0300030002009365
:10006200AF83E582900000F0EFA3F0900000E0FE85
:10007200A3E0FF8E048F051EBEFF011F900000EE5D
:10008200F0EFA3F0EC4D70EB900000EEF0EFA3F078
:100092002243C330D29443C38253C3F743C30443BE
:1000A200C340C29475C512E5C430E7FB75C520E5AF
:1000B200C430E7FBD2949086A0120062C29475C548
:1000C20018E5C430E7FB75C580E5C430E7FBD29480
:1000D2009086A0120062C29475C512E5C430E7FB97
:1000E20075C520E5C430E7FBD2949086A012006269
:1000F200C29475C500E5C430E7FB75C500E5C430A0
:10010200E7FBD2949086A0120062904240120062F5
:040112000200A42221
:06003500E478FFF6D8FD9F
:100013007900E94400601B7A0090011A780275A008
:1000230000E493F2A308B8000205A0D9F4DAF2754C
:02003300A0FF2C
:10003B007800E84400600A790075A000E4F309D861
:10004B00FC7802E84400600C7901900000E4F0A316
:04005B00D8FCD9FAFA
:0D000600758107120116E5826003020003F8
:0401160075820022CC
:00000001FF
