:10006D00759850758700758920758DFDD28ED29942
:10007D0022E582900000F03099FD900000E0FF8FA6
:10008D0099C2997E008F828E832210980280FBAEDA
:10009D00997F008E828F8322AFF0AE83E582900030
:1000AD0001F0EEA3F0EFA3F0900001E0FDA3E0FE60
:1000BD00A3E0FF7B007C008D828E838FF01217935F
:1000CD00FA60300DBD00010E900001EDF0EEA3F0D1
:1000DD00EFA3F08A82C007C006C005C004C003129A
:1000ED00007ED003D004D005D006D0070BBB00C7CF
:1000FD000C80C4900001EDF0EEA3F0EFA3F00BBB6C
:10010D0000010C8B828C832274B3C0E07417C0E0A5
:10011D00120A2F158115817E007F00C3EE9403EF27
:10012D00648094804003020235EE2EFCEF33FDEC2B
:10013D002404FCED3400FDC007C006C005C0041248
:10014D000097AA82AB83D004D0058C828D83EAF010
:10015D00EBA3F08C828D83E0F582C005C004120004
:10016D007ED004D005D006D0078C828D83E0FAA313
:10017D00E0FBC3EA9430EB9400402D8C828D83E03C
:10018D00FAA3E0FBC374399AE49B401C8C828D83E7
:10019D00E0FAA3E0FBEA24D0FAEB34FFFB8C828D6E
:1001AD0083EAF0EBA3F08078EE2EFCEF33FDEC2428
:1001BD0004FCED3400FD8C828D83E0FAA3E0FBC3DB
:1001CD00EA9441EB9400401A74469AE49B4013EA7A
:1001DD0024C9FAEB34FFFB8C828D83EAF0EBA3F09C
:1001ED00803E8C828D83E0FAA3E0FBC3EA9461EB41
:1001FD009400401A74669AE49B4013EA24A9FAEB22
:10020D0034FFFB8C828D83EAF0EBA3F0801274D364
:10021D00C0E07417C0E0120A2F1581158102011577
:10022D000EBE00010F020128900004E0FEA3E08E37
:10023D00077E00900004EEF0EFA3F0900006E0FCC6
:10024D00A3E0C454F0CCC4CC6CCC54F0CC6CFD9079
:10025D000006ECF0EDA3F0EC2EFEED3FFF90000854
:10026D00E0FCA3E0FDEC2EFEED3FFFC3E49EE49F1A
:10027D00500B74F82F40068E828F83801274EAC063
:10028D00E07417C0E0120A2F1581158102011522A5
:1017B3000A0D2033726F7669646520616E2045459A
:1017C30033524F4D206164647265733A200D0A00F1
:1017D3000A0D20496E76616C6964206368617261E9
:1017E300637465720A0D000A0D20596F75277665BB
:1017F30020676976656E20616E20696E76616C691B
:1018030064204164647265732E20336C6561736573
:10181300207265656E74657220612076616C6964FF
:0A182300204164647265730D0A0031
:0400000002001132B7
:03000B0002066387
:03006A0002000E83
:03000E000208FCE9
:10029D00AF83E58290000AF0EFA3F090000AE0FE34
:1002AD00A3E0FF7C007D00C3EC9EED9F50070CBCCE
:1002BD0000F50D80F222C293D2929000D4E0FDA3FE
:1002CD00E0FEA3E0FF8D828E838FF0121793FDA3C6
:1002DD0012179353057F7E008D828E8322C293D297
:1002ED00929000D4E0FDA3E0FEA3E0FF8D828E830B
:1002FD008FF0121793FDA31217935305807E00BD47
:10030D008005BE000280DA22E58290000CF0E0FF4D
:10031D0024E0500ABF40004031EF24A0402C1202CF
:10032D00EAC293C2929000D4E0FDA3E0FEA3E0FFE9
:10033D0090000CE04480FC7B008D828E838FF0EC6E
:10034D00120A14A3EB120A14801E74ADC0E07418C7
:10035D00C0E0120A2F1581158174C2C0E07418C057
:10036D00E0120A2F1581158122E58290000EF0E032
:10037D00FF24FC406190000DE0FE24F092004056F9
:10038D00EF700C2000098E82C006120315D0069066
:10039D00000EE0FFBF011120000E8E0774402FF5F7
:1003AD0082C006120315D00690000EE0FFBF0211A9
:1003BD0020000E8E0774102FF582C006120315D083
:1003CD000690000EE0FFBF031C20001974502EF59F
:1003DD0082120315800F7400C0E07419C0E0120A78
:1003ED002F1581158122E58290000FF09000D4E049
:1003FD00FDA3E0FEA3E0FF90000FE0FC7B008D82EB
:10040D008E838FF0EC120A14A3EB120A1422C292FF
:10041D00C2937582301203F390C35012029D758200
:10042D00301203F390C35012029D7582301203F304
:10043D0090C35012029D7582381203F390C350126F
:10044D00029D7582081203F390C35012029D7582AE
:10045D000F1203F390C35012029D7582061203F31F
:10046D0090C35012029D7582011203F390C3501276
:10047D00029D22E582900010F01202C3AE82AF837E
:10048D00C292D2939000D4E0FBA3E0FCA3E0FD90D8
:10049D000010E0F97A008B828C838DF0E9120A143A
:1004AD00A3EA120A14C007C0061202EAD006D0074A
:1004BD00BE0F0BBF00087582401203158028BE1FAA
:1004CD000BBF0008758250120315801ABE4F0BBF6B
:1004DD000008758210120315800CBE5809BF000666
:1004ED0075820012031522AFF0AE83E582900011E4
:1004FD00F0EEA3F0EFA3F0900011E0FDA3E0FEA35A
:10050D00E0FF7B007C00EB2DF8EC3EF98F0288823A
:10051D0089838AF0121793FA60208A82C007C00679
:10052D00C005C004C003120480D003D004D005D090
:10053D0006D0070BBB00CF0C80CC221202EAC29270
:10054D00C2939000D4E0FDA3E0FEA3E0FF8D828E68
:10055D00838FF07401120A14A3E4120A142275A8F1
:10056D0082438901758CFB758AFDD28C229000CC5B
:10057D00E0FEA3E0FF9000877402F0E4A3F08E820A
:10058D008F83120B38E5828583F045F07060900003
:10059D00CEE02401F0A3E03400F09000CEE0FEA305
:1005AD00E0FFC374099E74808FF063F08095F05066
:1005BD003D9000CEE4F0A3F09000D0E02401F0A334
:1005CD00E03400F09000D0E0FEA3E0FFC3743B9E4A
:1005DD0074808FF063F08095F050139000D0E4F0AC
:1005ED00A3F09000D2E02401F0A3E03400F0758276
:1005FD00591203159000CEE0C0E0A3E0C0E09000DA
:10060D00D0E0C0E0A3E0C0E09000D2E0C0E0A3E005
:10061D00C0E07412C0E07419C0E07480C0E07414BE
:10062D00C0E07400C0E0E4C0E0120D1DE58124F4CB
:10063D00F58190001475F0001204F4229000CCE4C2
:10064D00F0A3F09000D0F0A3F09000CEF0A3F090C6
:10065D0000D2F0A3F022C021C0E0C0F0C082C08360
:10066D00C007C006C005C004C003C002C001C00061
:10067D00C0D075D0001202C3AE82AF839000CCE023
:10068D002401F0A3E03400F0C007C00612057AD0B3
:10069D0006D0078E82120315758C4B758AFDD0D04E
:1006AD00D000D001D002D003D004D005D006D007A1
:1006BD00D083D082D0F0D0E0D02132E58290001EE0
:1006CD00F0E0FFBF310050030208ECEF24C75003E8
:1006DD000208ECEF24CFFF240A83F582EF240C836C
:1006ED00F583E4730153F42D6285A8CA0707070843
:1006FD0008080808741FC0E07419C0E0120A2F150D
:10070D00811581120115AE82AF83C007C006C006E8
:10071D00C0077451C0E07419C0E0120A2FE581249E
:10072D00FCF581D006D0078E82120315900083E46C
:10073D00F09000847464F0E4A3F090001F75F00055
:10074D001209EC0208FB746BC0E07419C0E0120AC8
:10075D002F15811581120115AE82AF83C007C0061A
:10076D00C006C0077487C0E07419C0E0120A2FE5F7
:10077D008124FCF581900083E4F09000847464F092
:10078D00E4A3F090001F75F0001209EC74A2C0E014
:10079D007419C0E0120A2F15811581120115AC8252
:1007AD00AD83C005C004C004C00574BDC0E074199C
:1007BD00C0E0120A2FE58124FCF581900083E4F05E
:1007CD009000847464F0E4A3F090001F75F00012A3
:1007DD0009ECD004D005D006D00790000DECF08EBA
:1007ED00821203760208FB74D8C0E07419C0E012BF
:1007FD000A2F15811581120097AE828E057F00C0DC
:10080D0006C005C00774F3C0E07419C0E0120A2FCA
:10081D00E58124FCF581D0068E821204800208FB4E
:10082D007413C0E0741AC0E0120A2F1581158112DD
:10083D00011590001F75F0001204F4900083E4F090
:10084D009000847464F0E4A3F090001F75F0001222
:10085D0009EC0208FB742DC0E0741AC0E0120A2FD7
:10086D0015811581120548744CC0E0741AC0E01250
:10087D000A2F1581158180767460C0E0741AC0E06E
:10088D00120A2F15811581120649747BC0E0741A66
:10089D00C0E0120A2F158115818053748CC0E0744D
:1008AD001AC0E0120A2F15811581C28C74A5C0E003
:1008BD00741AC0E0120A2F15811581803174B9C0E8
:1008CD00E0741AC0E0120A2F15811581D28C74D2F2
:1008DD00C0E0741AC0E0120A2F15811581800F74C3
:1008ED00E6C0E0741AC0E0120A2F1581158122129C
:1008FD00006D12041B12056B741AC0E0741BC0E06E
:10090D00120A2F15811581746DC0E0741BC0E012A1
:10091D000A2F15811581748EC0E0741BC0E0120A78
:10092D002F15811581744CC0E0741CC0E0120A2F84
:10093D0015811581749DC0E0741CC0E0120A2F153D
:10094D0081158174CAC0E0741CC0E0120A2F158194
:10095D0015817405C0E0741DC0E0120A2F158115B4
:10096D00817445C0E0741DC0E0120A2F15811581F8
:10097D007491C0E0741DC0E0120A2F1581158174A9
:10098D00C2C0E0741DC0E0120A2F1581158174F9E3
:10099D00C0E0741DC0E0120A2F15811581742FC09F
:1009AD00E0741EC0E0120A2F15811581745EC0E03F
:1009BD00741EC0E0120A2F15811581748EC0E0746B
:1009CD001EC0E0120A2F15811581120097AE82C04C
:0F09DD000612007ED0068E821206C80209412241
:10182D00000001000200030004000500060007008F
:10183D00080009000A000B000C000D000E000F003F
:10184D0010001100120013001400150016001700EF
:10185D00180019001A001B001C001D001E001F009F
:10186D00400041004200430044004500460047004F
:10187D00480049004A004B004C004D004E004F00FF
:10188D0050005100520053005400550056005700AF
:10189D00580059005A005B005C005D005E005F005F
:1018AD0041646472657320697320696E76616C6939
:1018BD0064200D0A004164647265732072616E6765
:1018CD00652073686F756C6420626520626574773E
:1018DD0065656E2030783030202D203078314620EF
:1018ED00616E642030783430202D203078354620DC
:1018FD000D0A00496E76616C69642056616C7565E0
:10190D0073200D0A00253032643A253032642E25BD
:10191D0064000D0A2033726F766964652074686502
:10192D002061646472657320796F7520776F756CB3
:10193D0064206C696B6520746F20676F20746F3A3B
:10194D00200D0A000D0A20476976656E20416464FA
:10195D00726573206973203A2025780D0A000D0AEF
:10196D002033726F766964652074686520782076FF
:10197D00616C7565203A200D0A000D0A20476976C5
:10198D00656E20582076616C7565206973203A204C
:10199D0025780D0A000D0A2033726F766964652073
:1019AD0074686520792076616C75653A200D0A00A2
:1019BD000D0A20476976656E20592076616C756534
:1019CD00206973203A2025780D0A000D0A20456EF6
:1019DD007465722061206368617261637465722041
:1019ED00203A200D0A000D0A20456E74657265645B
:1019FD002063686172616374657220697320203A97
:101A0D002025630D0A000D0A20456E746572206154
:101A1D0020737472696E6720696E7075740D0A009B
:101A2D000D0A2053637265656E20636C6561726982
:101A3D006E672070726F636573696E670D0A000DB6
:101A4D000A2053637265656E20636C65617265640F
:101A5D000D0A000D0A2054696D657220726573655B
:101A6D007474696E672E2E2E2E2E200D0A000D0A0F
:101A7D0020526573657420646F6E652E0D0A000D1E
:101A8D000A2053746F7070696E67207468652074D6
:101A9D00696D6572200D0A000D0A2054696D65721D
:101AAD002073746F70706564200D0A000D0A205349
:101ABD0074617274696E67207468652074696D65F0
:101ACD0072200D0A000D0A2054696D657220737421
:101ADD006172746564200D0A000D0A20496E7661ED
:101AED006C696420496E7075742E2052652D656E7B
:101AFD00746572207468652076616C696420636812
:101B0D0061726163746572202D200A0D000D202E07
:101B1D002E2E2E2E2E2E2E2E2E2E2E2E2E2E2E2ED8
:101B2D002E2E2E2E2E2E2E2E2E2E2E2E2E2E2E2EC8
:101B3D002E2E2E2E2E2E2E2E2E2E2E2E2E2E2E2EB8
:101B4D002E2E2E2E2E2E2E2E2E2E2E2E2E2E2E2EA8
:101B5D002E2E2E2E2E2E2E2E2E2E2E2E2E0A0D000B
:101B6D0057656C636F6D6520746F20746865204CCC
:101B7D0043442055492033726F6772616D2E0D0AF3
:101B8D000054686973204C43442070726F67726112
:101B9D006D2077696C6C20616C6C6F7720796F7537
:101BAD0020746F200A0D20312E204D6F7665207424
:101BBD006F20706172746963756C61722061646409
:101BCD00726573200A0D20322E20336F696E7420DA
:101BDD00637572736F722061742061207265717507
:101BED00657374656420706F736974696F6E2E20F0
:101BFD000A0D20332E2057726974652061206368A9
:101C0D0061726163746572206F72206120737472EA
:101C1D00696E6720746F20746865204C4344200AF8
:101C2D000D20342E2052756E732061207265616C0B
:101C3D002074696D6520636C6F636B200A0D000D58
:101C4D00202E2E2E2E2E2E2E2E2E2E2E2E2E2E2EB5
:101C5D002E2E2E2E2E2E2E2E2E2E2E2E2E2E2E2E97
:101C6D002E2E2E2E2E2E2E2E2E2E2E2E2E2E2E2E87
:101C7D002E2E2E2E2E2E2E2E2E2E2E2E2E2E2E2E77
:101C8D002E2E2E2E2E2E2E2E2E2E2E2E2E0A0D00DA
:101C9D005468652070726F6772616D20646F657333
:101CAD002074686520666F6C6C6F77696E6720664F
:101CBD00756E6374696F6E733A200D0A00273127B4
:101CCD002020202020202020202020202020207CAB
:101CDD00202020202020202020546F20676F746F3B
:101CED00206120706172746963756C61722041644A
:101CFD0064726573200D0A002732272020202020D2
:101D0D00202020202020202020207C20202020206A
:101D1D0020202020546F20676F746F206120676929
:101D2D0076656E205820616E64205920706F73693E
:101D3D0074696F6E200D0A00273327202020202084
:101D4D00202020202020202020207C20202020202A
:101D5D0020202020546F207072696E7420612063E2
:101D6D00686172616374657220696E2074686520A4
:101D7D0063757272656E7420706F736974696F6EBE
:101D8D00200D0A002734272020202020202020206D
:101D9D002020202020207C202020202020202020DA
:101DAD00546F207072696E74206120737472696E45
:101DBD0067200D0A002735272020202020202020F5
:101DCD00202020202020207C2020202020202020AA
:101DDD0020546F20636C65617220746865204C43DC
:101DED00442073637265656E200D0A002736272027
:101DFD0020202020202020202020202020207C207A
:101E0D002020202020202020546F207265736574BF
:101E1D0020746865204C43442054696D6572200D13
:101E2D000A002737272020202020202020202020B6
:101E3D00202020207C202020202020202020546FB6
:101E4D002053544F3320746865204C4344200D0AB1
:101E5D00002738272020202020202020202020206F
:101E6D002020207C202020202020202020546F2086
:101E7D00737461727420746865204C4344200D0A9C
:101E8D00000A0D20456E74657220612063686172D1
:101E9D00616374657220746F20706572666F726D08
:101EAD0020746865206E65636573617279206F704B
:0C1EBD0065726174696F6E3A200D0A00B6
:0B1ED4000000000000000000FF8F0075
:06004000E478FFF6D8FD94
:1009EC00AC82AD83900084E0FEA3E0FFBE00036008
:1009FC00121F0F900083E08C828D83120A14A3DEE9
:080A0C00FADFF88C828D8322D1
:10001E00790BE94400601B7A01901ED478CC75A050
:10002E0000E493F2A308B8000205A0D9F4DAF27541
:02003E00A0FF21
:100A140020F71130F6138883A88220F509F6A883FD
:100A24007583002280FEF280F5F022C008858108DB
:100A3400E50824FDF8868318868218E493A324DB52
:100A4400600C24256005120B1D80F0020B35D2D5F5
:100A5400E493A3C083C082B4731486F01886831809
:100A64008682181217936054A3120B1D80F5B46389
:100A74000818E618120B1D8043B46417E630E746E5
:100A840018E6F42401F608E6F43400F6742D120B8B
:100A94001D8033B4782D868318868218E4120B0ED9
:100AA400E583120B0DE583120B0EE582120B0DE5A7
:100AB40082120B0E30D5057430120B1DD082D083F8
:100AC400020A3FB475F6E6FA18E6F9187C107D2799
:100AD400120AF8FF7CE87D03120AF8C4F5837C64EB
:100AE4007D00120AF84283E975F00A84C445F0F5E2
:100AF40082EF80A97B000BC3E99CF9EA9DFA50F6CA
:100B04001BE92CF9EA3DFAEB22C4540F700320D5FB
:100B14001FC2D52490D43440D4C083C082C0F0F521
:100B240082E8C0E012007ED0E0F8D0F0D082D0831A
:100B340022D00822AF83E582900089F0EFA3F090E1
:100B44000089E0FEA3E0FF30E709C3E49EFCE49FD4
:100B5400FD80048E048F05900087E0FEA3E0FF3043
:100B6400E709C3E49EFAE49FFB80048E028F03909E
:100B7400008BEAF0EBA3F08C828D83120BA0AE8283
:100B8400AF83900089E0A3E030E70CC3E49EFCE46B
:100B94009FFD8C828D83228E828F8322AF83E58298
:100BA40090008DF0EFA3F090008FE4F090008DE0C2
:100BB400FEA3E0FF7D0090008BE0FBA3E0FC235448
:100BC40001FA7036EB2BFBEC33FC90008BEBF0EC72
:100BD400A3F090008BE0FBA3E0FCC3EE9BEF9C50E2
:100BE40011ECC313CB13CBFC90008BEBF0ECA3F014
:100BF40080080D90008FEDF080BC90008FE0FF9096
:100C0400008DE0FDA3E0FE90008BE0FBA3E0FCC3BD
:100C1400ED9BEE9C400B90008DEDC39BF0EE9CA3EE
:100C2400F090008BE0FDA3E0C313CD13CDFE900044
:100C34008BEDF0EEA3F08F061FEE70C390008DE0F5
:080C4400FEA3E08E82F583227D
:100046007800E84400600A790075A000E4F309D856
:10005600FC78CCE84400600C7901900000E4F0A341
:04006600D8FCD9FAEF
:100C4C00C008858108C082058105810581E50824DD
:100C5C00FBF8A9080909E6F708E609F708E609F719
:100C6C00A808080886820886830886F0121793FA6B
:100C7C00A3121793FBA3121793FF74012AFCE43BF6
:100C8C00FD8F06A808080886820886830886F0EC83
:100C9C00120A14A3ED120A14A3EE120A148A828B00
:100CAC00838FF0A80808E6120A14850881D0082260
:100CBC00AFF0AE83E582900094F0EEA3F0EFA3F0DA
:100CCC00900090E0FDA3E0FEA3E0FF900093E0FC19
:100CDC009000A87494F07400A3F0E4A3F09000AB1F
:100CEC00EDF0EEA3F0EFA3F09000AEECF0900C4C16
:100CFC00120E4DAE82AF83900094E0FBA3E0FCA3F8
:100D0C00E0FD8B828C838DF0E4120A148E828F832B
:100D1C0022C008E581F50824F8FFE50824FBFE7DD8
:100D2C00007C409000A8EEF0EDA3F0ECA3F0E508F9
:100D3C0024F8F89000ABE6F008E6A3F008E6A3F080
:100D4C009000AEEFF0900C4C120E4DAE82AF83E5DE
:100D5C000824FBF886030886040886058B828C839E
:100D6C008DF0E4120A148E828F83D00822E58290D3
:100D7C0000A4F0E0FF90009AE0C0E0A3E0C0E0A384
:100D8C00E0C0E0120D94800D900098E0C0E0A3E06C
:100D9C00C0E08F82221581158115819000A2E0247C
:100DAC0001F0A3E03400F022E5829000A5F0E024ED
:100DBC0030FF24C6500D74072FFF900097E060039E
:100DCC004307208F82020D79E5829000A6F0E0FFA8
:100DDC00C4540FF582C007120DB4D00753070F8F00
:100DEC0082020DB4E5829000A7F090009DE0FCA378
:100DFC00E0FDA3E0FEA3E0FF9000A1E0FB9000A7C4
:100E0C00E0FA79208B00E828F513EF235401451301
:100E1C00FBEC2CFCED33FDEE33FEEF33FFC3EB9A12
:100E2C004007EBC39AFB43040119E970D790009D6E
:100E3C00ECF0EDA3F0EEA3F0EFA3F09000A1EBF03B
:100E4C0022AF83E5829000AFF0EFA3F09000AFE00B
:100E5C00FEA3E0FF900098EEF0EFA3F09000A8E066
:100E6C00FDA3E0FEA3E0FF90009AEDF0EEA3F0EFFF
:100E7C00A3F09000A2E4F0A3F09000ABE0FDA3E09F
:100E8C00FEA3E0FF8D828E838FF0121793FC9000EF
:100E9C00AB74012DF0E43EA3F0EFA3F0EC70030271
:100EAC00174FBC250280030217479000B1E4F09065
:100EBC0000B2F09000B3F09000B4F09000B5F09058
:100ECC0000B6F09000B7F09000B8F09000BAF09037
:100EDC0000BBF0A3F09000BD14F0A3F09000ABE0C9
:100EEC00FDA3E0FEA3E0FF8D828E838FF01217939B
:100EFC00FBA3AD82AE839000ABEDF0EEA3F0EFA3BD
:100F0C00F09000C1EBF0BB25088B82120D79020E1C
:100F1C0085BB30005003020FE6EB24C65003020FD2
:100F2C00E69000BDE0F509A3E0F50A74FFB509638E
:100F3C00B50A60C005C006C0079000BBE0FAA3E08C
:100F4C00FF9000CAEAF0EFA3F090000AC005C003BE
:100F5C00121773AE82AF83D003D0058B027D00EAEB
:100F6C002EFEED3FFFEE24D0FEEF34FFFF9000BBD2
:100F7C00EEF0EFA3F0D007D006D0059000BBE0F563
:100F8C00F0A3E045F06003020EF39000B27401F0A0
:100F9C00020EF3C005C006C0079000CAE509F0E5D3
:100FAC000AA3F090000AC006C005C003121773AA6A
:100FBC0082AF83D003D005D0067E00EB2AFAEE3F39
:100FCC00FFEA24D0FAEF34FFFF9000BDEAF0EFA364
:100FDC00F0D007D006D005020EF39000C1E0FBBBA9
:100FEC002E2FC005C006C0079000BDE0FAA3E0FF9D
:100FFC00BAFF05BFFF028009D007D006D005020E4C
:10100C00F3D007D006D0059000BDE4F0A3F0020E9B
:10101C00F3BB61004014EB2485400F9000C174DFDA
:10102C005BF09000977401F08005900097E4F090CD
:10103C0000C1E0FBBB20028075BB2B028067BB2D7F
:10104C00028059BB4202806FBB4302807CBB4403CD
:10105C000212DDBB4603021303BB4803020EF3BBB3
:10106C0049030212DDBB4A03020EF3BB4C02805053
:10107C00BB4F030212EBBB500302124BBB5302805B
:10108C0077BB5403020EF3BB55030212F3BB580398
:10109C000212FBBB5A03020EF302130B9000B17445
:1010AC0001F0020EF39000B37401F0020EF3900005
:1010BC00B47401F0020EF39000B67401F0020EF35A
:1010CC009000B77401F0020EF39000B6E0600E9041
:1010DC0000AEE014F9F09000C1E7F0800F9000AE84
:1010EC00E024FEFFF08F019000C1E7F09000C1E01A
:1010FC00F582120D7902131A9000AEE024FDFFF078
:10110C008F018705098706098707191990009DED3E
:10111C00F0EEA3F0EFA3F08D828E838FF012175BAD
:10112C0085820985830A9000BDE0FAA3E0FDBAFF31
:10113C000DBDFF0A9000BDE509F0E50AA3F0900093
:10114C00B1E0704B9000BBE0FAA3E0FDC3E5099A57
:10115C00E50A9D503A9000BBEAC39509F0ED950A5B
:10116C00A3F09000BBE0FAA3E0FD8A068D071ABA43
:10117C00FF011DEE4F6010758220C005C002120DDC
:10118C0079D002D00580E39000BBEAF0EDA3F0909B
:10119C0000BDE0F50CA3E0F50D90009DE0FAA3E096
:1011AC00FDA3E0FF8A828D838FF0121793F50B60FD
:1011BC003CC3E4950C7480850DF063F08095F05081
:1011CC002C150C74FFB50C02150D850B82120D79C4
:1011DC0090009DE0FAA3E0FDA3E0FF0ABA00010D28
:1011EC0090009DEAF0EDA3F0EFA3F080AC9000B17D
:1011FC00E0700302131A9000BBE0FEA3E0FFC3E50E
:10120C00099EE50A9F400302131A9000BBEEC3959A
:10121C0009F0EF950AA3F09000BBE0FEA3E0FF8E6F
:10122C00028F051EBEFF011FEA4D700302131275DB
:10123C008220C007C006120D79D006D00780E0903E
:10124C0000AEE024FDFDF08D01870E09870F0987A4
:10125C0010191990009DE50EF0E50FA3F0E510A311
:10126C00F090009FE0FDBD800040089000C17443E9
:10127C00F08020BD600040089000C17450F08013D5
:10128C00BD400040089000C17449F080069000C138
:10129C007458F09000C1E0FDF582C005120D79750F
:1012AC00823A120D79758230120D79758278120D91
:1012BC0079D005BD4902800EBD5002800990009E78
:1012CC00E0F582120DD490009DE0F582120DD480D1
:1012DC003D9000B57401F09000BA740AF0802F9024
:1012EC0000BA7408F080279000BA740AF0801F903E
:1012FC0000BA7410F080179000B87401F0800F8B56
:10130C0082120D7980089000BBEEF0EFA3F09000F4
:10131C00B8E060719000AEE024FCFFF08F01870311
:10132C0009870509870609870719191990009DEB8C
:10133C00F0EDA3F0EEA3F0EFA3F090009D74C9F0D4
:10134C00741EA3F07480A3F090009DE0F50EA3E052
:10135C00F50FA3E0F5107401250EFAE4350FFBAF81
:10136C001090009DEAF0EBA3F0EFA3F0850E8285C0
:10137C000F838510F0121793FF7003020E858F8276
:10138C00120D7980C39000BAE07003020E859000B4
:10139C00B6E060479000AEE014F9F087077E007D60
:1013AC00007B0090009DEFF0EEA3F0EDA3F0EBA31B
:1013BC00F09000B5E0600302145D90009DE0FBA38B
:1013CC00E0A3E0A3E07D007E007F0090009DEBF0A9
:1013DC00EDA3F0EEA3F0EFA3F080769000B7E06001
:1013EC00289000AEE024FCFFF08F018703098705ED
:1013FC0009870609870719191990009DEBF0EDA3D1
:10140C00F0EEA3F0EFA3F080489000AEE024FEFFD6
:10141C00F08F01870609870719EF3395E0FDFB90E4
:10142C00009DEEF0EFA3F0EDA3F0EBA3F09000B570
:10143C00E0701E90009DE0FBA3E0FDA3E0A3E07E26
:10144C00007F0090009DEBF0EDA3F0EEA3F0EFA376
:10145C00F09000B5E0604190009DE0FBA3E0FDA39F
:10146C00E0FEA3E0FF30E72B90009DE0FBA3E0FD46
:10147C00A3E0FEA3E0FFC3E49BFBE49DFDE49EFE22
:10148C00E49FFF90009DEBF0EDA3F0EEA3F0EFA333
:10149C00F080059000B5E4F09000B97401F0900074
:1014AC00BAE0F50C7511C7751200E4F509F50A9050
:1014BC0000A1E4F0850C82120DF09000B9E07033BD
:1014CC009000A1E0C454F0F50E9000A1E0C4540FBC
:1014DC00450EF50E851182851283E0FFE50E42075D
:1014EC00851182851283EFF0151174FFB511021569
:1014FC0012800C9000A1E0FF851182851283F0050B
:10150C0009E4B50902050A9000B9E0B40100E4331E
:10151C00F090009DE0FAA3E0FBA3E0FEA3E0FFEA5D
:10152C004B4E4F708A9000C8E511F0E512A3F09075
:10153C0000BFE509F0E50AA3F09000BBE0F5F0A3CD
:10154C00E045F070099000BB7401F0E4A3F090004A
:10155C00B2E0FFE070479000B1E070418509118561
:10156C000A129000BBE0FAA3E0FBC007AF110F8F8B
:10157C00067F00C3EE9AEF9BD0075019758220C0EE
:10158C0007C003C002120D79D002D003D0071ABADB
:10159C00FF011B80D59000BBEAF0EBA3F09000B5E7
:1015AC00E0602075822DC007120D79D0079000BB2A
:1015BC00E024FFFDA3E034FFFE9000BBEDF0EEA3B2
:1015CC00F080569000BFE0F5F0A3E045F0604A9043
:1015DC0000B3E0602075822BC007120D79D0079004
:1015EC0000BBE024FFFDA3E034FFFE9000BBEDF058
:1015FC00EEA3F080249000B4E0601E758220C0073A
:10160C00120D79D0079000BBE024FFFDA3E034FF5E
:10161C00FE9000BBEDF0EEA3F09000B1E0704890AE
:10162C0000BFE0F511A3E0F5129000BBE0FAA3E0D7
:10163C00FBC0078A068B071ABAFF011BC3E5119E74
:10164C00E5129FD0075053EF60067D307E0080047A
:10165C007D207E008D82C007C003C002120D79D0A0
:10166C0002D003D00780CA9000BBE0FEA3E0FF903D
:10167C0000BFE0F511A3E0F512C3E5119EE5129F42
:10168C00500F9000BBEEC39511F0EF9512A3F080B4
:10169C00119000BBE4F0A3F080089000BBEAF0EBE3
:1016AC00A3F09000C8E0FEA3E0FF9000BFE0F511AE
:1016BC00A3E0F512AA11AD12151174FFB5110215A4
:1016CC0012EA4D60459000B9E0B40100E433F090AB
:1016DC0000B9E070140EBE00010F8E828F83E0C43F
:1016EC00540FFD9000A1F0800E8E828F83E0FD538D
:1016FC00050F9000A1EDF09000A1E0F582C007C0AD
:10170C0006120DB4D006D00780AA9000B1E0700389
:10171C00020E859000BBE0FEA3E0FF8E038F051E3A
:10172C00BEFF011FEB4D7003020E85758220C007B2
:10173C00C006120D79D006D00780E08C82120D798C
:0F174C00020E859000A2E0FEA3E08E82F58322BC
:0B1EC9003C4E4F20464C4F41543E0061
:10175B00AA82AB831217936003A380F8C3E5829A26
:10176B00F582E5839BF58322AA83AB828BF09000F5
:10177B00CAE0A4F8A9F08AF0E0A429F98BF0A3E061
:08178B00A429F58388822222C3
:0D0011007581211217AFE582600302000E19
:1017930020F71430F6148883A88220F507E6A8837F
:1017A30075830022E280F7E49322E022758200220F
:00000001FF
