:20006200759850758700758920758DFDD28ED29922E582900000F03099FD900000E0FF8F70
:2000820099C2997E008F828E832210980280FBAE997F008E828F8322AFF0AE83E5829000B2
:2000A20001F0EEA3F0EFA3F0900001E0FDA3E0FEA3E0FF7B007C008D828E838FF01216100B
:2000C200FA60300DBD00010E900001EDF0EEA3F0EFA3F08A82C007C006C005C004C0031253
:2000E2000073D003D004D005D006D0070BBB00C70C80C4900001EDF0EEA3F0EFA3F00BBB4E
:2001020000010C8B828C83227430C0E07416C0E0120959158115817E007F00C3EE9403EF50
:2001220064809480400302022AEE2EFCEF33FDEC2404FCED3400FDC007C006C005C00412C7
:20014200008CAA82AB83D004D0058C828D83EAF0EBA3F08C828D83E0F582C005C004120088
:2001620073D004D005D006D0078C828D83E0FAA3E0FBC3EA9430EB9400402D8C828D83E0E3
:20018200FAA3E0FBC374399AE49B401C8C828D83E0FAA3E0FBEA24D0FAEB34FFFB8C828DFE
:2001A20083EAF0EBA3F08078EE2EFCEF33FDEC2404FCED3400FD8C828D83E0FAA3E0FBC3CC
:2001C200EA9441EB9400401A74469AE49B4013EA24C9FAEB34FFFB8C828D83EAF0EBA3F0FF
:2001E200803E8C828D83E0FAA3E0FBC3EA9461EB9400401A74669AE49B4013EA24A9FAEB6C
:2002020034FFFB8C828D83EAF0EBA3F080127450C0E07416C0E01209591581158102010A6B
:200222000EBE00010F02011D900004E0FEA3E08E077E00900004EEF0EFA3F0900006E0FC52
:20024200A3E0C454F0CCC4CC6CCC54F0CC6CFD900006ECF0EDA3F0EC2EFEED3FFF90000837
:20026200E0FCA3E0FDEC2EFEED3FFFC3E49EE49F500B74F82F40068E828F8380127467C08A
:10028200E07416C0E01209591581158102010A2293
:201630000A0D2050726F7669646520616E20454550524F4D206164647265733A200D0A00AF
:201650000A0D20496E76616C6964206368617261637465720A0D000A0D20596F7527766522
:2016700020676976656E20616E20696E76616C6964204164647265732E20506C6561736510
:1A169000207265656E74657220612076616C6964204164647265730D0A00F0
:03000000020006F5
:03005F0002000399
:030003000204F202
:20029200758E0C90000022AF83E582900011F0EFA3F0900011E0FEA3E0FF7C007D00C3EC36
:2002B2009EED9F50070CBC00F50D80F222D296D29522D296D295900032120299C296900036
:2002D2003212029922C295900019120299D296900019120299D295900019120299C29690FB
:2002F200003212029922C295900019120299C296900019120299D295900019120299D2966B
:2003120090003212029922C295900019120299C296900019120299D29590003212029922E7
:20033200C295900019120299D296900019120299D29590003212029922E582900013F090BE
:20035200000A7401F0E4A3F0900013E0FF7E00C295900032C007C006120299D006D0078F16
:20037200047D008EF005F08006EC2CFCED33FDD5F0F7EC30E704D2968002C296900019C052
:2003920007C006120299D295900032120299D006D0070EBE080040B7C29590000AE0FEA311
:2003B200E0FFBE010FBF000C90000AE4F0A3F030960480FBC296900019120299D2969000C7
:2003D20019120299D295900032120299A296E433F58222900014E4F07F00C295D296900041
:2003F20032C007120299D295900019120299D007A296E433FE8F057407C39DFD8DF005F086
:20041200EE800225E0D5F0FBFD900014E04DF0900032C007120299D0070FBF080040BB9069
:200432000014E0F58222AF83E582900016F0EFA3F01202C47582A012034BAF82BF01051295
:2004520002C480F0900016E0FEA3E08E8212034B900015E0F58212034B1202F822AF83E53C
:2004720082900018F0EFA3F01202C47582A012034BAF82BF01051202C480F0900018E0FE3B
:20049200A3E08E8212034B1202D77582A112034B1203E5AF82C0071203321202F8D0078FC9
:2004B20082221202C47E007F00C295900032C007C006120299D296900032120299D2959090
:2004D2000032120299D006D0070EBE00010FC3EE9409EF6480948040D01202C41202F82257
:2004F200120062C296C2951202BF74AAC0E07416C0E0120959158115817400C0E07417C00D
:20051200E0120959158115817427C0E07417C0E012095915811581747EC0E07417C0E01274
:200532000959158115817459C0E07418C0E01209591581158174B1C0E07418C0E01209597D
:2005520015811581740EC0E07419C0E012095915811581744DC0E07419C0E01209591581D6
:200572001581748DC0E07419C0E01209591581158174E0C0E07419C0E012095915811581A4
:200592007459C0E07418C0E0120959158115811205A780FB227419C0E0741AC0E0120959E6
:2005B2001581158112008CAE82C006120073D0068E057F008D828F83C006120697D006BED2
:2005D2005731C00674AAC0E07416C0E0120959158115817456C0E0741AC0E0120959158191
:2005F200158174AAC0E07416C0E012095915811581D006BE5231C00674AAC0E07416C0E006
:200612001209591581158174AAC0E0741AC0E01209591581158174AAC0E07416C0E0120999
:200632005915811581D006BE442D74AAC0E07416C0E01209591581158174FDC0E0741AC037
:20065200E01209591581158174AAC0E07416C0E01209591581158174AAC0E07416C0E01286
:200672000959158115817453C0E0741BC0E01209591581158174AAC0E07416C0E012095948
:200692001581158122AF83E58290001AF0EFA3F090001AE0FEA3E0FFBE4406BF0003020768
:2006B200E2BE4F06BF000302091ABE5206BF000302077CBE5705BF0002800302094912012A
:2006D2000AAE82AF8390000CEEF0EFA3F0C006C0077483C0E0741BC0E07480C0E0120BC4D8
:2006F200E58124FBF58174A5C0E0741BC0E07480C0E0120BC415811581158112008CAE8200
:20071200900010EEF08E82120073900010E0FF7E00C007C00674EEC0E0741BC0E07480C045
:20073200E0120BC4E58124FBF58190000CE0FEA3E0FF900010E0900015F08E828F831204A2
:2007520038900010E0FF7E0090000CE0C0E0A3E0C0E0C007C0067411C0E0741CC0E0120916
:2007720059E58124FAF58102095812010AAE82AF8390000EEEF0EFA3F0C006C0077483C0F0
:20079200E0741BC0E07480C0E0120BC4E58124FBF58190000EE0FEA3E0FF8E828F83120492
:2007B2006FAF82900060EFF07E00C007C00690000EE0C0E0A3E0C0E07460C0E0741CC0E0C8
:2007D2007480C0E0120BC4E58124F9F5810209587488C0E0741CC0E01209591581158112B8
:2007F200010AAE82AF83C007C00674D0C0E0741CC0E01209591581158112010AAC82AD83BE
:20081200D006D0077A007B008E008F01C3EC98ED99500302095888828983C007C006C0051B
:20083200C004C003C002C001C00012046FE582D000D001D002D003900060F090001C74109A
:20085200F0E4A3F08A828B83C003C002C001C000120A62E5828583F0D000D001D002D003DC
:20087200D004D005D006D00745F07047C004C0058A048B05EC2EFCED3FFDC007C006C005EC
:20089200C004C003C002C001C000C004C0057417C0E0741DC0E0120959E58124FCF581D057
:2008B20000D001D002D003D004D005D006D007D005D004C004C0050ABA00010B900060E088
:2008D200FD7C00C007C006C005C004C003C002C001C000C005C0047422C0E0741DC0E0740D
:2008F20080C0E0120BC4E58124FBF581D000D001D002D003D004D005D006D00708B800018D
:2009120009D005D00402081E7426C0E0741DC0E07480C0E0120BC41581158115811204B47F
:200932007448C0E0741DC0E07480C0E0120BC4158115811581800F745BC0E0741DC0E012A0
:0709520009591581158122EE
:2016AA000D202E2E2E2E2E2E2E2E2E2E2E2E2E2E2E2E2E2E2E2E2E2E2E2E2E2E2E2E2E2E8F
:2016CA002E2E2E2E2E2E2E2E2E2E2E2E2E2E2E2E2E2E2E2E2E2E2E2E2E2E2E2E2E2E2E2E40
:2016EA002E2E2E2E2E2E2E2E2E2E2E2E2E2E2E2E2E2E2E0A0D000D2057656C636F6D652046
:20170A00746F2049324320454550524F4D204170706C69636174696F6E210A0D000D202EEF
:20172A002E2E2E2E2E2E2E2E2E2E2E2E2E2E2E2E2E2E2E2E2E2E2E2E2E2E2E2E2E2E2E2EDF
:20174A002E2E2E2E2E2E2E2E2E2E2E2E2E2E2E2E2E2E2E2E2E2E2E2E2E2E2E2E2E2E2E2EBF
:20176A002E2E2E2E2E2E2E2E2E2E2E2E2E2E2E2E2E0A0D000D0A20546869732070726F6793
:20178A0072616D2077696C6C20616C6C6F7720796F7520746F3A200A0D20312E2054726131
:2017AA006E736D697420646174612028777269746529746F2074686520454550524F4D2052
:2017CA000A0D20322E20526563656976652064617461202872656164292066726F6D207456
:2017EA00686520454550524F4D200A0D20332E2047656E65726174657320612048657820CE
:20180A0044756D70206F66207468652073746F7265642064617461200A0D20666F72207435
:20182A006865206D656D6F72792061646472657320796F75207265717565737420696E20C8
:20184A0074686520454550524F4D2E200A0D000D202E2E2E2E2E2E2E2E2E2E2E2E2E2E2E11
:20186A002E2E2E2E2E2E2E2E2E2E2E2E2E2E2E2E2E2E2E2E2E2E2E2E2E2E2E2E2E2E2E2E9E
:20188A002E2E2E2E2E2E2E2E2E2E2E2E2E2E2E2E2E2E2E2E2E2E2E2E2E2E2E2E2E2E2E2E7E
:2018AA002E2E2E2E0A0D000D0A20446972656374696F6E7320746F207573652E2E2E2E2EAE
:2018CA002E2E2E200A0D20546865736520666F6C6C6F77696E672063686172616374657266
:2018EA007320706572666F726D732072657370656374697665206F7065726174696F6E731F
:20190A003A0A0D000D205720202020202020202020202020207C202020202020202020206C
:20192A00577269746573206461746120746F2074686520454550524F4D2061646472657386
:20194A000A0D000D205220202020202020202020202020207C202020202020202020205219
:20196A006561647320646174612066726F6D2074686520454550524F4D2061646472657356
:20198A000A0D000D204420202020202020202020202020207C2020202020202020202047F2
:2019AA00656E657261746573207468652048657864756D7020666F7220746865206D656D43
:2019CA006F7279207370616365207265717565737465640A0D000D204F2020202020202012
:2019EA00202020202020207C20202020202020202020536F667420726573657473207468F3
:201A0A00652049324320454550524F4D0A0D000A0D456E74657220612063686172616374EE
:201A2A00657220746F20706572666F726D207468652072657370656374697665206F706588
:201A4A00726174696F6E3A20200A0D000A0D20596F752776652063686F73656E20746F2025
:201A6A00706572666F726D205772697465206F7065726174696F6E3A200A0D20466F6C6C27
:201A8A006F7720746865206E656365736172792073746570732062656C6F773A200D0A0082
:201AAA000A0D20596F752776652063686F73656E20746F20706572666F726D20526561644C
:201ACA00206F7065726174696F6E3A200A0D20466F6C6C6F7720746865206E656365736117
:201AEA0072792073746570732062656C6F773A200D0A000A0D20596F752776652063686F28
:201B0A0073656E20746F20706572666F726D2048657844756D70206F7065726174696F6E8B
:201B2A003A200A0D20466F6C6C6F7720746865206E656365736172792073746570732062EB
:201B4A00656C6F773A200D0A000A0D20596F752776652063686F73656E20746F20706572D3
:201B6A00666F726D205265736574206F7065726174696F6E3A200A0D000A0D20596F75208E
:201B8A00656E746572656420746865206164647265733A20307825780A0D000A0D205072B1
:201BAA006F76696465207468652064617461206279746520796F7520776F756C64206C6958
:201BCA006B6520746F2073746F726520696E207468652061626F7665206164647265733A89
:201BEA00200A0D000A0D20596F7520656E746572656420746865206461746120627974653A
:201C0A003A2025630A0D000A0D20596F757220646174612062797465202A2A25632A2A20DD
:201C2A00686173206265656E2073756363657366756C6C792073746F72656420746F20748A
:201C4A00686520616464726573202A2A307825782A2A200A0D000A0D205468652064617425
:201C6A006120627974652073746F72656420696E20307825782069732025630A0D000A0D46
:201C8A002050726F7669646520746865207374617274696E672061646472657320666F725A
:201CAA00207468652048657844756D7020746F2062652067656E6572617465642066726FBE
:201CCA006D3A200A0D000A0D2050726F766964652074686520656E64696E6720616464725B
:201CEA00657320666F72207468652048657844756D7020746F2062652067656E657261746F
:201D0A00656420756E74696C3A200A0D000A0D30782578203E3E2000257820000A0D2059CE
:201D2A006F757220736F66742072657365742070726F636573696E672E2E200A0D000A0D90
:201D4A002052657365742073756363657366756C000A0D20496E76616C69642063686172AD
:201D6A00616374657220656E74657265642E20506C656173652072652D656E7465722061D8
:141D8A002076616C6964206368617261637465720A0D200011
:031DA900A0000097
:06003500E478FFF6D8FD9F
:200013007903E94400601B7A01901DA9785E75A000E493F2A308B8000205A0D9F4DAF2756C
:02003300A0FF2C
:20095900C008858108E50824FDF8868318868218E493A324DB600C24256005120A4780F05B
:20097900020A5FD2D5E493A3C083C082B4731486F0188683188682181216106054A3120AF8
:200999004780F5B4630818E618120A478043B46417E630E74618E6F42401F608E6F4340092
:2009B900F6742D120A478033B4782D868318868218E4120A38E583120A37E583120A38E543
:2009D90082120A37E582120A3830D5057430120A47D082D083020969B475F6E6FA18E6F94E
:2009F900187C107D27120A22FF7CE87D03120A22C4F5837C647D00120A224283E975F00A43
:200A190084C445F0F582EF80A97B000BC3E99CF9EA9DFA50F61BE92CF9EA3DFAEB22C454B4
:200A39000F700320D51FC2D52490D43440D4C083C082C0F0F582E8C0E0120073D0E0F8D06F
:090A5900F0D082D08322D00822E3
:200A6200AF83E58290001EF0EFA3F090001EE0FEA3E0FF30E709C3E49EFCE49FFD80048EBA
:200A8200048F0590001CE0FEA3E0FF30E709C3E49EFAE49FFB80048E028F03900020EAF0A3
:200AA200EBA3F08C828D83120ACAAE82AF8390001EE0A3E030E70CC3E49EFCE49FFD8C824D
:080AC2008D83228E828F8322B6
:200ACA00AF83E582900022F0EFA3F0900024E4F0900022E0FEA3E0FF7D00900020E0FBA30A
:200AEA00E0FC235401FA7036EB2BFBEC33FC900020EBF0ECA3F0900020E0FBA3E0FCC3EE07
:200B0A009BEF9C5011ECC313CB13CBFC900020EBF0ECA3F080080D900024EDF080BC9000E1
:200B2A0024E0FF900022E0FDA3E0FE900020E0FBA3E0FCC3ED9BEE9C400B900022EDC39B71
:200B4A00F0EE9CA3F0900020E0FDA3E0C313CD13CDFE900020EDF0EEA3F08F061FEE70C30A
:0C0B6A00900022E0FEA3E08E82F58322C2
:20003B007800E84400600A790075A000E4F309D8FC785EE84400600C7901900000E4F0A366
:04005B00D8FCD9FAFA
:200B7600C0088581087E008E83120073D00822AFF0AE83E582900026F0EEA3F0EFA3F0900B
:200B96000026E0FDA3E0FEA3E0FF900025E0FC90003AE4F0A3F0A3F090003DEDF0EEA3F0B9
:200BB600EFA3F0900040ECF0900B76020CCAC008E581F50824FBFF90003AE4F0A3F0A3F0FB
:200BD600E50824FBF890003DE6F008E6A3F008E6A3F0900040EFF0900B76120CCAD00822B4
:200BF600E582900036F0E0FF90002CE0C0E0A3E0C0E0A3E0C0E0120C11800D90002AE0C04B
:200C1600E0A3E0C0E08F8222158115811581900034E02401F0A3E03400F022E58290003716
:200C3600F0E02430FF24C6500D74072FFF900029E060034307208F82020BF6E582900038E2
:200C5600F0E0FFC4540FF582C007120C31D00753070F8F82020C31E582900039F090002F8C
:200C7600E0FCA3E0FDA3E0FEA3E0FF900033E0FB900039E0FA79208B00E828F513EF23541C
:200C9600014513FBEC2CFCED33FDEE33FEEF33FFC3EB9A4007EBC39AFB43040119E970D716
:200CB60090002FECF0EDA3F0EEA3F0EFA3F0900033EBF022AF83E582900041F0EFA3F090D4
:200CD6000041E0FEA3E0FF90002AEEF0EFA3F090003AE0FDA3E0FEA3E0FF90002CEDF0EE12
:200CF600A3F0EFA3F0900034E4F0A3F090003DE0FDA3E0FEA3E0FF8D828E838FF01216101A
:200D1600FC90003D74012DF0E43EA3F0EFA3F0EC70030215CCBC250280030215C4900043D5
:200D3600E4F0900044F0900045F0900046F0900047F0900048F0900049F090004AF09000C8
:200D56004CF090004DF0A3F090004F14F0A3F090003DE0FDA3E0FEA3E0FF8D828E838FF01F
:200D7600121610FBA3AD82AE8390003DEDF0EEA3F0EFA3F0900053EBF0BB25088B82120BAA
:200D9600F6020D02BB30005003020E63EB24C65003020E6390004FE0F509A3E0F50A74FF38
:200DB600B50963B50A60C005C006C00790004DE0FAA3E0FF90005CEAF0EFA3F090000AC0B0
:200DD60005C0031215F0AE82AF83D003D0058B027D00EA2EFEED3FFFEE24D0FEEF34FFFFC8
:200DF60090004DEEF0EFA3F0D007D006D00590004DE0F5F0A3E045F06003020D709000440E
:200E16007401F0020D70C005C006C00790005CE509F0E50AA3F090000AC006C005C0031240
:200E360015F0AA82AF83D003D005D0067E00EB2AFAEE3FFFEA24D0FAEF34FFFF90004FEA40
:200E5600F0EFA3F0D007D006D005020D70900053E0FBBB2E2FC005C006C00790004FE0FA28
:200E7600A3E0FFBAFF05BFFF028009D007D006D005020D70D007D006D00590004FE4F0A3FA
:200E9600F0020D70BB61004014EB2485400F90005374DF5BF09000297401F080059000299D
:200EB600E4F0900053E0FBBB20028075BB2B028067BB2D028059BB4202806FBB4302807C3C
:200ED600BB440302115ABB4603021180BB4803020D70BB490302115ABB4A03020D70BB4C6F
:200EF600028050BB4F03021168BB50030210C8BB53028077BB5403020D70BB55030211706C
:200F1600BB5803021178BB5A03020D700211889000437401F0020D709000457401F0020DE8
:200F3600709000467401F0020D709000487401F0020D709000497401F0020D70900048E040
:200F5600600E900040E014F9F0900053E7F0800F900040E024FEFFF08F01900053E7F0907C
:200F76000053E0F582120BF6021197900040E024FDFFF08F01870509870609870719199029
:200F9600002FEDF0EEA3F0EFA3F08D828E838FF01215D885820985830A90004FE0FAA3E030
:200FB600FDBAFF0DBDFF0A90004FE509F0E50AA3F0900043E0704B90004DE0FAA3E0FDC3EB
:200FD600E5099AE50A9D503A90004DEAC39509F0ED950AA3F090004DE0FAA3E0FD8A068DD2
:200FF600071ABAFF011DEE4F6010758220C005C002120BF6D002D00580E390004DEAF0EDD7
:20101600A3F090004FE0F50CA3E0F50D90002FE0FAA3E0FDA3E0FF8A828D838FF012161074
:20103600F50B603CC3E4950C7480850DF063F08095F0502C150C74FFB50C02150D850B82E1
:20105600120BF690002FE0FAA3E0FDA3E0FF0ABA00010D90002FEAF0EDA3F0EFA3F080AC33
:20107600900043E0700302119790004DE0FEA3E0FFC3E5099EE50A9F400302119790004DA6
:20109600EEC39509F0EF950AA3F090004DE0FEA3E0FF8E028F051EBEFF011FEA4D700302D2
:2010B600118F758220C007C006120BF6D006D00780E0900040E024FDFDF08D01870E098745
:2010D6000F098710191990002FE50EF0E50FA3F0E510A3F0900031E0FDBD800040089000B5
:2010F600537443F08020BD600040089000537450F08013BD400040089000537449F0800656
:201116009000537458F0900053E0FDF582C005120BF675823A120BF6758230120BF6758296
:2011360078120BF6D005BD4902800EBD50028009900030E0F582120C5190002FE0F582125D
:201156000C51803D9000477401F090004C740AF0802F90004C7408F0802790004C740AF0F1
:20117600801F90004C7410F0801790004A7401F0800F8B82120BF6800890004DEEF0EFA310
:20119600F090004AE06071900040E024FCFFF08F0187030987050987060987071919199048
:2011B600002FEBF0EDA3F0EEA3F0EFA3F090002F749EF0741DA3F07480A3F090002FE0F58C
:2011D6000EA3E0F50FA3E0F5107401250EFAE4350FFBAF1090002FEAF0EBA3F0EFA3F0853A
:2011F6000E82850F838510F0121610FF7003020D028F82120BF680C390004CE07003020D4D
:2012160002900048E06047900040E014F9F087077E007D007B0090002FEFF0EEA3F0EDA3F7
:20123600F0EBA3F0900047E060030212DA90002FE0FBA3E0A3E0A3E07D007E007F009000F5
:201256002FEBF0EDA3F0EEA3F0EFA3F08076900049E06028900040E024FCFFF08F018703DB
:2012760009870509870609870719191990002FEBF0EDA3F0EEA3F0EFA3F08048900040E0B6
:2012960024FEFFF08F01870609870719EF3395E0FDFB90002FEEF0EFA3F0EDA3F0EBA3F0AE
:2012B600900047E0701E90002FE0FBA3E0FDA3E0A3E07E007F0090002FEBF0EDA3F0EEA30B
:2012D600F0EFA3F0900047E0604190002FE0FBA3E0FDA3E0FEA3E0FF30E72B90002FE0FB35
:2012F600A3E0FDA3E0FEA3E0FFC3E49BFBE49DFDE49EFEE49FFF90002FEBF0EDA3F0EEA3ED
:20131600F0EFA3F08005900047E4F090004B7401F090004CE0F50C751159751200E4F509D0
:20133600F50A900033E4F0850C82120C6D90004BE07033900033E0C454F0F50E900033E0B4
:20135600C4540F450EF50E851182851283E0FFE50E4207851182851283EFF0151174FFB54E
:2013760011021512800C900033E0FF851182851283F00509E4B50902050A90004BE0B4019C
:2013960000E433F090002FE0FAA3E0FBA3E0FEA3E0FFEA4B4E4F708A90005AE511F0E51283
:2013B600A3F0900051E509F0E50AA3F090004DE0F5F0A3E045F0700990004D7401F0E4A3A7
:2013D600F0900044E0FFE07047900043E07041850911850A1290004DE0FAA3E0FBC007AF6E
:2013F600110F8F067F00C3EE9AEF9BD0075019758220C007C003C002120BF6D002D003D0A3
:20141600071ABAFF011B80D590004DEAF0EBA3F0900047E0602075822DC007120BF6D0072A
:2014360090004DE024FFFDA3E034FFFE90004DEDF0EEA3F08056900051E0F5F0A3E045F096
:20145600604A900045E0602075822BC007120BF6D00790004DE024FFFDA3E034FFFE9000A3
:201476004DEDF0EEA3F08024900046E0601E758220C007120BF6D00790004DE024FFFDA38B
:20149600E034FFFE90004DEDF0EEA3F0900043E07048900051E0F511A3E0F51290004DE071
:2014B600FAA3E0FBC0078A068B071ABAFF011BC3E5119EE5129FD0075053EF60067D307EDF
:2014D6000080047D207E008D82C007C003C002120BF6D002D003D00780CA90004DE0FEA3C5
:2014F600E0FF900051E0F511A3E0F512C3E5119EE5129F500F90004DEEC39511F0EF9512A0
:20151600A3F0801190004DE4F0A3F0800890004DEAF0EBA3F090005AE0FEA3E0FF90005165
:20153600E0F511A3E0F512AA11AD12151174FFB511021512EA4D604590004BE0B40100E4F3
:2015560033F090004BE070140EBE00010F8E828F83E0C4540FFD900033F0800E8E828F83AE
:20157600E0FD53050F900033EDF0900033E0F582C007C006120C31D006D00780AA900043D1
:20159600E07003020D0290004DE0FEA3E0FF8E038F051EBEFF011FEB4D7003020D027582C1
:2015B60020C007C006120BF6D006D00780E08C82120BF6020D02900034E0FEA3E08E82F5EC
:0215D60083226E
:0B1D9E003C4E4F20464C4F41543E008D
:1815D800AA82AB831216106003A380F8C3E5829AF582E5839BF5832213
:2015F000AA83AB828BF090005CE0A4F8A9F08AF0E0A429F98BF0A3E0A429F5838882222254
:0D00060075811312162CE5826003020003C1
:1C16100020F71430F6148883A88220F507E6A88375830022E280F7E49322E022E9
:04162C0075820022A1
:00000001FF
