:10007800AF83E582900000F0EFA3F03099FD900087
:1000880000E0FEA3E0FF8E99C2998E828F83221032
:10009800980280FBAE997F008E828F832274DDC028
:1000A800E07413C0E01210F315811581740EC0E0DE
:1000B8007414C0E01210F315811581120097E582BF
:1000C8008583F024D0FEE5F034FFFFC007C006C0EA
:1000D80006C007745FC0E07414C0E01210F3E58135
:1000E80024FCF581120097E5828583F024D0FCE595
:1000F800F034FFFDC005C004C004C005746DC0E045
:100108007414C0E01210F3E58124FCF58112009705
:10011800E5828583F024D0FAE5F034FFFBC003C004
:1001280002C002C003747BC0E07414C0E01210F374
:10013800E58124FCF581120097E5828583F024D0BF
:10014800F8E5F034FFF9C001C000C000C0017489AF
:10015800C0E07414C0E01210F3E58124FCF581D0EE
:1001680000D001D002D003D004D005D006D007902B
:1001780013BAEEF0EFA3F09003E8C005C004C00383
:10018800C002C001C0001213A1AE82AF83D000D05C
:1001980001D002D003D004D0059013BAECF0EDA33F
:1001A800F0900064C007C006C003C002C001C000D0
:1001B8001213A1AC82AD83D000D001D002D003D0FD
:1001C80006D007EC2EFEED3FFF9013BAEAF0EBA342
:1001D800F090000AC007C006C001C0001213A1AC0D
:1001E80082AD83D000D001D006D007EC2EFEED3FC3
:1001F800FFE82EFEE93FFFC007C006C006C007742F
:1002080098C0E07414C0E01210F3E58124FCF58175
:10021800D006D0078E048F05C3EC9430ED940040CF
:10022800508E048F05C374C09C74129D40438E0485
:100238008F05EC540F703AC007C00674A8C0E0746C
:1002480014C0E01210F315811581D006D007C0073D
:10025800C006C006C0077498C0E07414C0E012104D
:10026800F3E58124FCF581D006D0078E828F838048
:100278001274CBC0E07414C0E01210F3158115811C
:100288000200B42274F4C0E07414C0E01210F31534
:10029800811581120097E5828583F024D0FEE5F070
:1002A80034FFFFC007C006C006C007741BC0E07457
:1002B80015C0E01210F3E58124FCF581120097E5E2
:1002C800828583F024D0FCE5F034FFFDC005C0042E
:1002D800C004C005742CC0E07415C0E01210F3E52A
:1002E8008124FCF581120097E5828583F024D0FAF9
:1002F800E5F034FFFBC003C002C002C003743DC078
:10030800E07415C0E01210F3E58124FCF581D002F9
:10031800D003D004D005D006D0079013BAEEF0EF82
:10032800A3F0900064C005C004C003C0021213A16A
:10033800AE82AF83D002D003D004D0059013BAECBC
:10034800F0EDA3F090000AC007C006C003C0021277
:1003580013A1AC82AD83D002D003D006D007EC2E17
:10036800FEED3FFFEA2EFEEB3FFFC007C006C006CA
:10037800C007744EC0E07415C0E01210F3E5812484
:10038800FCF581D006D0078E048F05C3EC941EEDD2
:10039800940040478E048F05C374209C74039D40CD
:1003A8003AC007C00674A8C0E07414C0E01210F385
:1003B80015811581D006D007C007C006C006C00742
:1003C800744EC0E07415C0E01210F3E58124FCF50A
:1003D80081D006D0078E828F83801274CBC0E074E0
:1003E80014C0E01210F31581158102028C2212004C
:1003F80097E5828583F024D0FEE5F034FFFFC0073F
:10040800C006C006C007746FC0E07415C0E01210C3
:10041800F3E58124FCF581120097E5828583F024B9
:10042800D0FCE5F034FFFDC005C004C004C005746D
:100438002CC0E07415C0E01210F3E58124FCF581AE
:10044800D004D005D006D0079013BAEEF0EFA3F091
:1004580090000AC005C0041213A1E5828583F0D07C
:1004680004D0052CFCED35F0FDC005C004C004C067
:10047800057483C0E07415C0E01210F3E58124FC14
:0B048800F581D004D0058C828D83220A
:1013DD0057656C636F6D6520746F202055415254B5
:1013ED00206D656D6F727920616C6C6F63617469CE
:1013FD006F6E206170706C69636174696F6E0A0D38
:10140D0000456E7465722061206865617020736996
:10141D007A65202864696769742062792064696738
:10142D00697429206265747765656E203438206192
:10143D006E642034383030207468617420697320F4
:10144D00646976697369626C652062792031360D45
:10145D000A0064696769745F313D2025640D0A00D7
:10146D0064696769745F323D2025640D0A00646903
:10147D006769745F333D2025640D0A0064696769EF
:10148D00745F343D202564200D0A0048656170733A
:10149D00697A65203D2025640A0D00596F75206815
:1014AD0061766520676976656E20612076616C696D
:1014BD006420686561702073697A650D0A00596F43
:1014CD00757220686561702073697A652073706527
:1014DD0063696669656420697320696E76616C69FC
:1014ED00642E200A0D2000456E74657220612068FF
:1014FD006561702073697A65206265747765656EC4
:10150D0020333020616E64203330300D0A002064AA
:10151D00696769745F31203D202564200D0A002024
:10152D0064696769745F32203D202564200D0A00CF
:10153D002064696769745F33203D202564200D0A9E
:10154D00000A0D4E657720686561702073697A65B4
:10155D0020656E7465726564206973202564200AA8
:10156D000D00200A0D2064696769745F31203D20EC
:10157D002564200D0A000A0D5468652062756666A3
:10158D006572206E756D6265722070726F7669641A
:10159D00656420746F2064656C65746520697320C3
:0615AD002564200A0D0078
:10005F00900070E4F0A3F0900072F0A3F0900074A1
:06006F007402F0E4A3F0AE
:10049300AF83E582900002F0EFA3F0900002E0FE4C
:1004A300A3E0FF907FF0EEF0EFA3F022AF83E582AD
:1004B300900004F0EFA3F0900004E0FEA3E0FFBE81
:1004C3002B05BF00028027BE2D06BF00030206498D
:1004D300BE3D06BF0003020AA4BE3F06BF000302DF
:1004E30007C3BE4006BF0003020B85020CAE90009B
:1004F3005212049374B3C0E07415C0E01210F315E4
:1005030081158112028CAE82AF8390006EEEF0EF04
:10051300A3F0900070E0FCA3E0FDEC2CFCED33FDB8
:10052300EC243CFCED3413FD8E828F83C005C004A4
:10053300121238AE82AF83D004D0058C828D83EE45
:10054300F0EFA3F0900070E0FEA3E0FFEE2EFCEFCF
:1005530033FDEC243CF582ED3413F583E0FCA3E09A
:100563004C701274CDC0E07415C0E01210F3158105
:100573001581020CAE74022EFEE43FFFC006C007D5
:100583007414C0E07416C0E01210F3E58124FCF586
:1005930081900070E0FEA3E0FF74022EFEE43FFFB3
:1005A30090006EE0C0E0A3E0C0E0C006C007744462
:1005B300C0E07416C0E01210F3E58124FAF58190CF
:1005C3000072E0FEA3E0FFEE2EFEEF33FFEE243CCD
:1005D300F582EF3413F583E0FEA3E0FF900070E0B3
:1005E300FCA3E0FD74022CFCE43DFDC006C007C083
:1005F30004C0057468C0E07416C0E01210F3E5810E
:1006030024FAF581900074E0FEA3E0FFEE2EFEEFE6
:1006130033FFEE2406FEEF3400FF90006EE0FCA3F0
:10062300E0FD8E828F83ECF0EDA3F0900074E02464
:1006330001F0A3E03400F0900070E02401F0A3E0A7
:100643003400F0020CAE900053120493748AC0E09D
:100653007416C0E01210F3158115811203F6AE82F1
:10066300AF8390006CEEF0EFA3F0EE4F701274B610
:10067300C0E07416C0E01210F315811581020CAEB0
:10068300BE014CBF004990133AE0FCA3E0FD7B00A0
:100693008C828D838BF0120F9C90133AE0FCA3E0C5
:1006A300FDC004C00574DEC0E07416C0E01210F390
:1006B300E58124FCF58190133AE4F0A3F074F0C0D3
:1006C300E07416C0E01210F315811581020CAE8E92
:1006D300048F05C374019C74808DF063F08095F0E2
:1006E30040030207B1900070E0FCA3E0FD74022C0C
:1006F300FCE43DFD8E028F03C3EC9AED64808BF026
:1007030063F08095F050030207B1C006C00774047C
:10071300C0E07417C0E01210F3E58124FCF581906A
:10072300006CE0FEA3E01E1EC2D575F002EE30E7BA
:1007330004B2D5F404A430D50AF42401C5F0F4348A
:1007430000C5F0243CF582741335F0F583E0FEA375
:10075300E0FF7D008E828F838DF0120F9C90006CE2
:10076300E0C0E0A3E0C0E07428C0E07417C0E0126A
:1007730010F3E58124FCF58190006CE0FEA3E0FF1B
:100783001E1EC2D575F002EE30E704B2D5F404A400
:1007930030D50AF42401C5F0F43400C5F0243CF547
:1007A30082741335F0F583E4F0A3F0020CAE743FCA
:1007B300C0E07417C0E01210F315811581020CAE6E
:1007C300900054120493901338E0F5F0A3E045F041
:1007D30070030208917486C0E07417C0E01210F32E
:1007E300158115819013A0E0C0E0A3E0C0E074B0D0
:1007F300C0E07417C0E01210F3E58124FCF581908A
:1008030013BCE0FEA3E0FF9013A0E0FCA3E0FDEE29
:100813002CFEEF3DFFC006C00774D9C0E07417C0BB
:10082300E01210F3E58124FCF5819013BCE0C0E0F5
:10083300A3E0C0E07400C0E07418C0E01210F3E558
:100843008124FCF5819013C0E0C0E0A3E0C0E07414
:100853001FC0E07418C0E01210F3E58124FCF58199
:100863009013C0E0FEA3E0FF9013BCE0FCA3E0FD07
:10087300ECC39EFEED9FFFC006C0077444C0E07446
:1008830018C0E01210F3E58124FCF581800F746138
:10089300C0E07418C0E01210F31581158190133A6B
:1008A300E0F5F0A3E045F060727495C0E07418C001
:1008B300E01210F3158115819013A2E0C0E0A3E0CC
:1008C300C0E074BFC0E07418C0E01210F3E58124E7
:1008D300FCF5819013BCE0FEA3E0FF9013A2E0FCC3
:1008E300A3E0FDEE2CFEEF3DFFC006C00774E8C099
:1008F300E07418C0E01210F3E58124FCF581901335
:10090300BCE0C0E0A3E0C0E0740FC0E07419C0E035
:100913001210F3E58124FCF581800F7422C0E0748A
:1009230019C0E01210F3158115817E027F0090003B
:1009330070E0FCA3E0FD74022CFCE43DFDC3EC9EDF
:10094300ED64808FF063F08095F05003020A868E89
:1009530005ED24FEFCC2D575F002EC30E704B2D5F8
:10096300F404A430D50AF42401C5F0F43400C5F02E
:10097300243CF582741335F0F583E0FBA3E0FC4BD4
:100983007003020A67C007C006C005C006C007742B
:1009930056C0E07419C0E01210F3E58124FCF58120
:1009A300D005D006D0071D1DC2D575F002ED30E786
:1009B30004B2D5F404A430D50AF42401C5F0F43408
:1009C30000C5F0243CFC741335F0FD8C828D83E06C
:1009D300FAA3E0FBC007C006C005C004C002C00301
:1009E300747FC0E07419C0E01210F3E58124FCF5B4
:1009F30081D004D005D006D0078C828D83E0FCA380
:100A0300E0FDEE2EFAEF33FBEA2406FAEB3400FBAB
:100A13008A828B83E0F8A3E0F9E82CFCE93DFDC072
:100A230007C006C003C002C004C0057496C0E074CA
:100A330019C0E01210F3E58124FCF581D002D00344
:100A43008A828B83E0FAA3E0FBC002C00374AEC0CA
:100A5300E07419C0E01210F3E58124FCF581D0069F
:100A6300D0078017C007C00674C0C0E07419C0E087
:100A73001210F315811581D006D0070EBE00010FA9
:100A83000209319013C0E0C0E0A3E0C0E07400C0ED
:100A9300E0741AC0E01210F3E58124FCF581020C26
:100AA300AE9000551204937426C0E0741AC0E0128D
:100AB30010F31581158190006AE4F0A3F090006AA9
:100AC300E0FEA3E0FF9013C0E0FCA3E0FDC3EE9CB7
:100AD300EF9D4003020CAEEE4F7031901338E0FCF3
:100AE300A3E0FDEE2CFCEF3DFD8C828D83E0FB7AD1
:100AF30000C003C002C004C005743FC0E0741AC044
:100B0300E01210F3E58124FAF5818067740F5EFC2F
:100B13007D004D602B901338E0FAA3E0FBEE2AF53D
:100B230082EF3BF583E0FB7A00C003C0027449C047
:100B3300E0741AC0E01210F3E58124FCF5818033E0
:100B4300EC4D702F901338E0FCA3E0FDEE2CFEEF8C
:100B53003DFF8E828F83E0FD7C00C005C004C0068C
:100B6300C007744DC0E0741AC0E01210F3E581248D
:100B7300FAF58190006AE02401F0A3E03400F0026A
:100B83000AC0900056120493745AC0E0741AC0E06D
:100B93001210F315811581901338E0FEA3E0FF7D59
:100BA300008E828F838DF0120F9C901338E4F0A394
:100BB300F09013C0F0A3F0746CC0E0741AC0E0129C
:100BC30010F315811581748FC0E0741AC0E0121000
:100BD300F31581158190133AE0FEA3E0FF7D008EAB
:100BE300828F838DF0120F9C90133AE4F0A3F0747C
:100BF300A4C0E0741AC0E01210F3158115819000AF
:100C0300767402F0E4A3F0900070E0FEA3E0FF74BA
:100C1300022EFEE43FFF900076E0FCA3E0FDC3EC70
:100C23009EED9F4003020CAEC004C00574BAC0E041
:100C3300741AC0E01210F3E58124FCF5819000766C
:100C4300E0FEA3E0FFEE2EFEEF33FFEE243CF58241
:100C5300EF3413F583E0FEA3E0FF7D008E828F83E4
:100C63008DF0120F9C900070E0FEA3E0FFEE2EFECD
:100C7300EF33FFEE243CF582EF3413F583E4F0A366
:100C8300F0900076E0C0E0A3E0C0E074D0C0E07470
:100C93001AC0E01210F3E58124FCF581900076E0A0
:0C0CA3002401F0A3E03400F0020C0A224F
:1015B300416C6C6F636174696E672061206E65773F
:1015C300206275666665720D0A000A0D204D656D11
:1015D3006F727920416C6C6F636174696F6E206602
:1015E3006F722042756666657220256420466169C4
:1015F3006C6564200A0D20507265737320272B27B6
:1016030020746F2054727920616761696E200A0D1E
:10161300000A0D4D656D6F727920416C6C6F6361CB
:1016230074696F6E205375636365737366756C209D
:10163300666F7220427566666572202564200A0D06
:10164300000A0D42756666657220256420616C6C24
:101653006F6361746564206F662073697A65202502
:1016630064200A0D000A0D41646472657373206F70
:101673006620627566666572202564206973203072
:10168300782578200A0D00506C6561736520656EBE
:1016930074657220746865206E756D626572206F63
:1016A300662062756666657220746F2064656C657A
:1016B3007465000A0D20536F7272792C204275668F
:1016C30066657220302063616E6E6F7420626520E0
:1016D30064656C65746564210A0D000A0D2042750A
:1016E3006666657220313E2025640A0D00427566E8
:1016F30066657220312064656C657465642E0D0A1D
:10170300000A0D2044656C6574696E672062756616
:1017130066657220256420696E2070726F6772653A
:1017230073730A0D000A0D204275666665722025E3
:101733006420697320667265650A0D000A0D456EA3
:1017430074657220612076616C69642062756666D7
:101753006572206E756D6265720A0D205072657335
:101763007320272D2720746F2064656C65746520B2
:10177300616E792076616C69642062756666657254
:101783000A0D000A0D203C3C3C3C3C3C4845415082
:10179300205245504F5254206F662042756666654D
:1017A300725F303E3E3E3E3E3E200D0A000A0D5320
:1017B30074617274696E6720416464726573732027
:1017C3006F66204275666665725F302069732030EC
:1017D3007825780A0D000A0D456E64696E6720410D
:1017E300646472657373206F662042756666657202
:1017F3005F3020697320307825780A0D000A0D4286
:1018030075666665722053697A65206F6620427536
:10181300666665725F302025640A0D000A0D5374F5
:101823006F726564206368617261637465727320AB
:10183300696E20627566666572203D2025640A0D17
:10184300000A0D46726565205370616365732069F4
:101853006E206275666665722025640A0D000A0DA6
:10186300427566666572203020697320656D7074F9
:1018730079202C20736F206E6F207265706F7274E5
:1018830020697320617661696C61626C65210D0A60
:1018930020000A0D203C3C3C3C3C3C484541502048
:1018A3005245504F5254206F6620427566666572EA
:1018B3005F313E3E3E3E3E3E200D0A000A0D53740C
:1018C300617274696E672041646472657373206F1B
:1018D30066204275666665725F31206973203078D1
:1018E30025780A0D000A0D456E64696E6720416410
:1018F3006472657373206F66204275666665725FF6
:101903003120697320307825780A0D000A0D42755D
:10191300666665722053697A652025640A0D000A9C
:101923000D427566666572203120697320656D709E
:101933007479202C20736F206E6F207265706F7224
:101943007420697320617661696C61626C65210D35
:101953000A20000A0D3C3C3C3C3C3C48454150209D
:101963005245504F5254206F662042756666657229
:101973005F25643E3E3E3E3E3E0A0D000A0D537413
:1019830061727420416464726573732030782578C2
:101993000A0D000A0D456E64696E67204164647226
:1019A30065737320307825780A0D000A0D42756639
:1019B3006665722053697A6525640A0D000A0D4134
:1019C3006C6C204275666665727320637265617420
:1019D30065642061726520656D7074792C20736F66
:1019E300206E6F2068656170207265706F7274205D
:1019F300617661696C61626C65210D0A000A0D4EA6
:101A0300756D626572206F662073746F72616765AE
:101A13002063686172616374657273203D2025647D
:101A23000A0D000A0D436F6E74656E747320696E40
:101A33002042756666657220300A0D00307825787D
:101A43003E3E2025780020257800307825783E3EDC
:101A5300202578200A0D000A0D467265652042751F
:101A63006666657220300A0D000A0D42756666656A
:101A73007220302077696C6C206E6F77206265630B
:101A83006F6D6520656D7074790A0D000A0D4672DD
:101A93006565696E672042756666657220310A0D59
:101AA300000A0D42756666657220312069732065F0
:101AB3006D7074790A0D000A0D46726565696E676B
:101AC300206275666665725F25640A0D000A0D4221
:101AD3007566666572202564206672656564200AF2
:041AE3000D00C01220
:03000000020006F5
:0300750002000383
:03000300020CC824
:100CAF00438E0C538EFD90000022438920439850B1
:100CBF00438840758DFDD29922120CB99007081206
:100CCF001238AE82AF83901338EEF0EFA3F08E049C
:100CDF008F059013A0ECF0EDA3F0EE4F602A74E7B0
:100CEF00C0E0741AC0E01210F3158115819013A0A3
:100CFF00E0C0E0A3E0C0E0740DC0E0741BC0E012E0
:100D0F0010F3E58124FCF581900708121238AE82AA
:100D1F00AF8390133AEEF0EFA3F08E048F0590138C
:100D2F00A2ECF0EDA3F0EE4F602A7436C0E0741B16
:100D3F00C0E01210F3158115819013A2E0C0E0A35B
:100D4F00E0C0E0745BC0E0741BC0E01210F3E581FB
:100D5F0024FCF5817E007F00C007C0067484C0E0CC
:100D6F00741BC0E01210F31581158174B8C0E074C4
:100D7F001BC0E01210F31581158174ECC0E0741BD9
:100D8F00C0E01210F3158115817420C0E0741CC0EF
:100D9F00E01210F3158115817454C0E0741CC0E08B
:100DAF001210F3158115817488C0E0741CC0E01215
:100DBF0010F31581158174BCC0E0741CC0E01210D3
:100DCF00F31581158174F0C0E0741CC0E01210F3AC
:100DDF00158115817484C0E0741BC0E01210F315E7
:100DEF008115817424C0E0741DC0E01210F31581C9
:100DFF001581120097AC82AD839013A4ECF0EDA394
:100E0F00F09013BEE02401F0A3E03400F08C828D4B
:100E1F00831200789013A4E0C0E0A3E0C0E0743C1C
:100E2F00C0E0741DC0E01210F3E58124FCF581D001
:100E3F0006D0079013BCE0FCA3E0FD8E028F03C326
:100E4F00EA9CEB9D4003020F039013A4E0FCA3E088
:100E5F00FDC3EC9441ED648094805003020F03C3F3
:100E6F00745A9C74808DF063F08095F05003020FDC
:100E7F00039013C0E02401F0A3E03400F090133886
:100E8F00E0FAA3E0FBEE2AF582EF3BF583ECF0905E
:100E9F001338E0FCA3E0FDEE2CFCEF3DFD9013A614
:100EAF00ECF0EDA3F0E4A3F00EBE00010FC007C0FD
:100EBF00069013A6E0C0E0A3E0C0E0A3E0C0E0749A
:100ECF0068C0E0741DC0E01210F3E58124FBF581CA
:100EDF00D006D007C007C006C006C0077495C0E093
:100EEF00741DC0E01210F3E58124FCF581D006D00B
:100EFF0007020D679013BCE0FCA3E0FD8E028F0389
:100F0F00EAB5046EEBB5056A9013A4E0FCA3E0FD0F
:100F1F00BC2D05BD0002805ABC2B05BD00028052BE
:100F2F00BC3F05BD0002804ABC4005BD00028042A7
:100F3F00BC3D05BD0002803AC3EC9461ED64809422
:100F4F0080402F747A9C74808DF063F08095F04010
:100F5F00218C828D83C007C00612007874A2C0E076
:100F6F00741DC0E01210F315811581D006D0070251
:100F7F000D679013A4E0FCA3E0FD8C828D83C00766
:0D0F8F00C0061204AFD006D007020D672285
:101AE7000D0A4D616C6C6F63696E67207375636374
:101AF70065737366756C20666F72204275666665DE
:101B07007230200D0A000D0A5374617274696E6792
:101B17002061646472657373206F66206275666600
:101B27006572203020697320307825780D0A000A05
:101B37000D4D616C6C6F63696E67207375636365C8
:101B4700737366756C20666F722042756666657280
:101B5700310D0A000A0D5374617274696E67206152
:101B6700646472657373206F66206275666665725A
:101B7700203120697320307825780D0A007C2A2AC5
:101B87002A2A2A2A2A2A2A2A2A2A2A2A2A2A2A2AAE
:101B97002A2A2A2A2A2A2A2A2A2A2A2A2A2A2A2A9E
:101BA7002A2A2A2A2A2A2A2A2A2A2A2A2A7C0A0D79
:101BB700007C202043686F6F736520612063686134
:101BC7007261637465722066726F6D207468652038
:101BD70062656C6F77206F7074696F6E7320202059
:101BE700207C0A0D007C2020412D5A20207C204398
:101BF700686172616374657220746F2073746F72A9
:101C07006520696E20746865206275666665722056
:101C170020202020207C0A0D007C20202B20202043
:101C2700207C20416C6C6F636174652061206E6558
:101C3700772062756666657220202020202020208C
:101C47002020202020202020207C0A0D007C20201E
:101C57002D202020207C2044656C65746520612040
:101C670062756666657220202020202020202020B3
:101C7700202020202020202020202020207C0A0D2A
:101C8700007C20203F202020207C20446973706C3A
:101C97006179207468652068656170207265706F6E
:101CA7007274202020202020202020202020202087
:101CB700207C0A0D007C20203D202020207C204411
:101CC7006973706C617920636F6E74656E747320CD
:101CD7006F66204275666665725F3020202020207F
:101CE70020202020207C0A0D007C2020402020205E
:101CF700207C204672656520616C6C2074686520C5
:101D070062756666657273202020202020202020BF
:101D17002020202020202020207C0A0D000D0A45AD
:101D27006E7465722074686520636861726163749C
:101D370065720D0A000A0D546865204153434949ED
:101D4700206F662074686520696E707574206368FB
:101D570061726163746572206973202564200D0ABE
:101D670000546865206368617261637465722069F5
:101D7700732073746F72656420696E2074686520C0
:101D87004275666665722025640D0A257000436FEB
:101D9700756E74203D2025640D0A004275666665E0
:101DA700725F302069732066756C6C2C20736F200E
:101DB7006E6F206D6F726520636861726163746511
:101DC70072732063616E2062652073746F7265643D
:0F1DD70020746F2069740D0A00000000000000E6
:100F9C00AFF0AE83E5829013A9F0EEA3F0EFA3F0CF
:100FAC009013A9E0FDA3E0FEA3E09013A9E0F5F0F7
:100FBC00A3E045F07001229013AEE4F0A3F090137F
:100FCC00B2E0FBA3E0FC9013ACEBF0ECA3F09013BD
:100FDC00B074B2F07413A3F09013ACE0FBA3E0FC7C
:100FEC004B60418B018C02C003C0048D008E04C386
:100FFC00E998EA9CD004D003502A9013AEEBF0ECA5
:10100C00A3F074022BFBE43CFC9013B0EBF0ECA3CC
:10101C00F08B828C83E0FBA3E0FC9013ACEBF0EC48
:10102C00A3F080B49013ACE0FEA3E0FF9013A9E012
:10103C00FBA3E0FCA3E0EB24FEFBEC34FFFC74020E
:10104C002BFAE43CFD8A828D83EEF0EFA3F0901333
:10105C00B0E0F8A3E0F988828983EBF0ECA3F08B85
:10106C00828C83E0F8A3E0F9EEB50033EFB5012FE5
:10107C0088828983A3A3E0FEA3E0FF8A828D83EE9E
:10108C00F0EFA3F08B828C83E0FEA3E0FF8E828FC7
:10109C0083E0FEA3E0FF8B828C83EEF0EFA3F09055
:1010AC0013AEE0FEA3E0FF4E603C8E828F83E0F82F
:1010BC00A3E0F9E8B5032FE9B5042B8B828C83E010
:1010CC00FBA3E0FC8E828F83EBF0ECA3F074022E7A
:1010DC00FEE43FFF8A828D83E0FAA3E0FD8E828FCF
:0710EC0083EAF0EDA3F022FE
:06003500E478FFF6D8FD9F
:100013007906E94400601B7A01901DE078BC75A065
:1000230013E493F2A308B8000205A0D9F4DAF27539
:02003300A0FF2C
:1010F300C00A85810AE50A24FDF8868318868218CA
:10110300E493A324DB600C242560051211E180F035
:101113000211F9D2D5E493A3C083C082B4731486B9
:10112300F0188683188682181213C16054A3121113
:10113300E180F5B4630818E6181211E18043B46442
:1011430017E630E74618E6F42401F608E6F434001F
:10115300F6742D1211E18033B4782D8683188682BC
:1011630018E41211D2E5831211D1E5831211D2E5ED
:10117300821211D1E5821211D230D50574301211C9
:10118300E1D082D083021103B475F6E6FA18E6F9CA
:10119300187C107D271211BCFF7CE87D031211BC63
:1011A300C4F5837C647D001211BC4283E975F00AA7
:1011B30084C445F0F582EF80A97B000BC3E99CF959
:1011C300EA9DFA50F61BE92CF9EA3DFAEB22C454E6
:1011D3000F700320D51FC2D52490D43440D4C083CC
:1011E300C082C0F0F582E8C0E0120078D0E0F8D009
:1011F300F0D082D08322D00A229013B27478F07494
:1012030000A3F0901AE5E493FE740193FF1EBEFF62
:10121300011FEE2478FEEF3400FF900078EEF0EF2C
:10122300A3F09013B2E0FEA3E0FF8E828F83A3A30B
:10123300E4F0A3F022AF83E5829013B4F0EFA3F0C0
:101243009013B2E0F5F0A3E045F070031211FC90A7
:1012530013B4E0FEA3E0FF4E600E74022EFCE43FE5
:10126300FDC3EC9EED9F5004900000229013B474D4
:10127300022EF0E43FA3F09013B4E0FEA3E0FFC31B
:10128300EE9404EF940050099013B47404F0E4A3B3
:10129300F09013B2E0FEA3E0FF9013B6EEF0EFA3DD
:1012A300F09013B874B2F07413A3F09013B6E0FE89
:1012B300A3E0FF4E700302139D8E828F83E0FCA395
:1012C300E0FD8C028D038E008F01EAC398FAEB993F
:1012D300FB8A008B019013B4E0F508A3E0F509C382
:1012E300E89508E99509500302137A74042508F870
:1012F300E43509F9C3EA98EB99404C8E028F03E574
:10130300082AFAE5093BFB8A828B83ECF0EDA3F014
:1013130074022AFCE43BFD8E828F83A3A3E0F8A32F
:10132300E0F98C828D83E8F0E9A3F09013B8E0FC38
:10133300A3E0FD8C828D83EAF0EBA3F08E828F8392
:10134300EAF0EBA3F0801C9013B8E0FCA3E0FD8E61
:10135300828F83A3A3E0FAA3E0FB8C828D83EAF060
:10136300EBA3F09013B6E0FCA3E0FD74022CFCE4C5
:101373003DFD8C828D832274022EFEE43FFF901389
:10138300B8EEF0EFA3F08E828F83E0FEA3E0FF9030
:1013930013B6EEF0EFA3F00212AE90000022AA8380
:1013A300AB828BF09013BAE0A4F8A9F08AF0E0A422
:0E13B30029F98BF0A3E0A429F5838882222279
:10003B007800E84400600A790075A000E4F309D861
:10004B00FC78BCE84413600C7914900000E4F0A336
:04005B00D8FCD9FAFA
:0D00060075810A120CAFE582600302000351
:1013C10020F71430F6148883A88220F507E6A88355
:0C13D10075830022E280F7E49322E02202
:00000001FF
