:10006200758700758920759850758DFD758840D209
:100072008ED29922E5D975D84075DA4275EABF75F4
:10008200FABF75E90075F90022E5D975D80075DA6D
:100092000075EA0075FA0022E5D975D84075DA4C88
:1000A20075EABF75FABF75E90075F9002243D942B6
:1000B20043D84043DE4075EE7F75FE7F75E90075DB
:1000C200F9002210980280FBAE997F008E828F8306
:1000D20022AF83E582900000F0EFA3F03099FD900B
:1000E2000000E0FEA3E0FF8E99C2998E828F8322E8
:03000000020006F5
:03005F0002000399
:030003000200F206
:1000F20012006274C0C0E0740DC0E07480C0E012EF
:10010200035415811581158174EDC0E0740DC0E0B2
:100112007480C0E0120354158115811581740EC0DC
:10012200E0740EC0E07480C0E012035415811581A2
:100132001581742EC0E0740EC0E07480C0E012031A
:10014200541581158115817454C0E0740EC0E07499
:1001520080C0E0120354158115811581747EC0E0C0
:10016200740EC0E07480C0E012035415811581152D
:100172008174A8C0E0740EC0E07480C0E012035421
:1001820015811581158174C8C0E0740EC0E07480B9
:10019200C0E012035415811581158174EFC0E0741B
:1001A2000EC0E07480C0E0120354158115811581E0
:1001B20074C0C0E0740DC0E07480C0E01203541536
:1001C2008115811581758F1F1200C5AE82AF839094
:1001D2000002EEF0EFA3F08E828F831200D3900024
:1001E20002E0FEA3E0FFC3EE9431EF6480948050FE
:1001F200030202FAC374389E74808FF063F0809514
:10020200F050030202FAEE24CFFE240A83F582EEB6
:10021200240C83F583E47329445F7A94AEC8E20226
:10022200020202020202027416C0E0740FC0E074FD
:1002320080C0E012035415811581158112007602E7
:1002420002FA742BC0E0740FC0E07480C0E01203A5
:100252005415811581158112008B0202FA743CC07B
:10026200E0740FC0E07480C0E01203541581158160
:1002720015811200AF0202FA7457C0E0740FC0E099
:100282007480C0E0120354158115811581759700A1
:100292008066746FC0E0740FC0E07480C0E0120327
:1002A200541581158115817597FF804C7487C0E0C4
:1002B200740FC0E07480C0E01203541581158115DB
:1002C200817587018032749DC0E0740FC0E0748034
:1002D200C0E01203541581158115817587028018BB
:1002E20074B9C0E0740FC0E07480C0E0120354150A
:1002F200811581158112009A9000027430F0E4A3F6
:04030200F00201C73D
:100DC0000D0A202A2A2A2A2A2A2A2A2A2A2A2A2ACA
:100DD0002A2A2A2A2A2A2A2A2A2A2A2A2A2A2A2A73
:100DE0002A2A2A2A2A2A2A2A2A2A0D0A000D0A2011
:100DF0005072657373203120746F20737461727444
:100E00002050574D207369676E616C0D0A000D0A02
:100E1000205072657373203220746F2073746F706A
:100E20002050574D207369676E616C0D0A000D0AE2
:100E3000205072657373203320746F207374617255
:100E40007420576174636820446F672054696D652E
:100E5000720D0A000D0A20507265737320342074DD
:100E60006F2073657420746865206D696E696D7597
:100E70006D206672657175656E63790D0A000D0AE5
:100E8000205072657373203520746F207365742051
:100E9000746865206D6178696D756D206672657125
:100EA00075656E63790D0A000D0A205072657373C3
:100EB000203620746F20676F20746F2049646C6542
:100EC000204D6F64650D0A000D0A20507265737322
:100ED000203720746F2073657420746F20506F77F3
:100EE000657220446F776E204D6F64650D0A000DAA
:100EF0000A205072657373203820746F20736574F4
:100F000020746F2048696768205370656564204DC0
:100F10006F64650D0A0050574D204D6F6465206168
:100F200063746976617465640D0A0050574D204DF5
:100F30006F646520656E6465640D0A0057617463B3
:100F400068646F672054696D6572206163746976A7
:100F5000617465640D0A004D696E696D756D20469A
:100F600072657175656E6379207365740D0A004D45
:100F70006178696D756D204672657175656E63790E
:100F8000207365740D0A0049646C65204D6F6465BB
:100F9000206163746976617465640D0A00506F772F
:100FA000657220446F776E204D6F646520616374B5
:100FB0006976617465640D0A00486967682053703A
:100FC000656564204D6F6465206163746976617442
:050FD00065640D0A003C
:06003500E478FFF6D8FD9F
:100013007900E94400601B7A00900FE0783D75A0F9
:1000230000E493F2A308B8000205A0D9F4DAF2754C
:02003300A0FF2C
:10003B007800E84400600A790075A000E4F309D861
:10004B00FC783DE84400600C7901900000E4F0A3DB
:04005B00D8FCD9FAFA
:10030600C0128581127E008E831200D3D01222AFD6
:10031600F0AE83E582900005F0EEA3F0EFA3F09037
:100326000005E0FDA3E0FEA3E0FF900004E0FC90E2
:100336000019E4F0A3F0A3F090001CEDF0EEA3F09A
:10034600EFA3F090001FECF090030602045AC012CF
:10035600E581F51224FBFF900019E4F0A3F0A3F069
:10036600E51224FBF890001CE6F008E6A3F008E688
:10037600A3F090001FEFF090030612045AD0122249
:10038600E582900015F0E0FF90000BE0C0E0A3E0EE
:10039600C0E0A3E0C0E01203A1800D900009E0C018
:1003A600E0A3E0C0E08F82221581158115819000BF
:1003B60013E02401F0A3E03400F022E58290001659
:1003C600F0E02430FF24C6500D74072FFF9000087C
:1003D600E060034307208F82020386E582900017C0
:1003E600F0E0FFC4540FF582C0071203C1D00753D3
:1003F600070F8F820203C1E582900018F090000E6D
:10040600E0FCA3E0FDA3E0FEA3E0FF900012E0FB0A
:10041600900018E0FA79208B00E828F513EF2354B2
:10042600014513FBEC2CFCED33FDEE33FEEF33FF01
:10043600C3EB9A4007EBC39AFB43040119E970D753
:1004460090000EECF0EDA3F0EEA3F0EFA3F0900019
:1004560012EBF022AF83E582900020F0EFA3F0903C
:100466000020E0FEA3E0FF900009EEF0EFA3F0907D
:100476000019E0FDA3E0FEA3E0FF90000BEDF0EE17
:10048600A3F0EFA3F0900013E4F0A3F090001CE0BB
:10049600FDA3E0FEA3E0FF8D828E838FF0120DA0F8
:1004A600FC90001C74012DF0E43EA3F0EFA3F0ECE9
:1004B6007003020D5CBC25028003020D54900022DD
:1004C600E4F0900023F0900024F0900025F09000D6
:1004D60026F0900027F0900028F0900029F0900078
:1004E6002BF090002CF0A3F090002E14F0A3F090C7
:1004F600001CE0FDA3E0FEA3E0FF8D828E838FF05B
:10050600120DA0FBA3AD82AE8390001CEDF0EEA30E
:10051600F0EFA3F0900032EBF0BB25088B821203BC
:1005260086020492BB300050030205F3EB24C6504A
:10053600030205F390002EE0F508A3E0F50974FF29
:10054600B50863B50960C005C006C00790002CE079
:10055600FAA3E0FF90003BEAF0EFA3F090000AC098
:1005660005C003120D80AE82AF83D003D0058B0287
:100576007D00EA2EFEED3FFFEE24D0FEEF34FFFFB6
:1005860090002CEEF0EFA3F0D007D006D005900037
:100596002CE0F5F0A3E045F060030205009000238F
:1005A6007401F0020500C005C006C00790003BE5D7
:1005B60008F0E509A3F090000AC006C005C00312C2
:1005C6000D80AA82AF83D003D005D0067E00EB2A29
:1005D600FAEE3FFFEA24D0FAEF34FFFF90002EEA4E
:1005E600F0EFA3F0D007D006D00502050090003248
:1005F600E0FBBB2E2FC005C006C00790002EE0FA18
:10060600A3E0FFBAFF05BFFF028009D007D006D0DE
:1006160005020500D007D006D00590002EE4F0A311
:10062600F0020500BB61004014EB2485400F9000EA
:100636003274DF5BF09000087401F08005900008CA
:10064600E4F0900032E0FBBB20028075BB2B0280F9
:1006560067BB2D028059BB4202806FBB4302807C80
:10066600BB44030208EABB4603020910BB48030267
:100676000500BB49030208EABB4A03020500BB4C5E
:10068600028050BB4F030208F8BB5003020858BB58
:1006960053028077BB5403020500BB5503020900D1
:1006A600BB5803020908BB5A030205000209189049
:1006B60000227401F00205009000247401F0020586
:1006C600009000257401F00205009000277401F0E7
:1006D6000205009000287401F0020500900027E052
:1006E600600E90001FE014F9F0900032E7F0800FE2
:1006F60090001FE024FEFFF08F01900032E7F0909B
:100706000032E0F58212038602092790001FE024DA
:10071600FDFFF08F018705098706098707191990DC
:10072600000EEDF0EEA3F0EFA3F08D828E838FF036
:10073600120D6885820885830990002EE0FAA3E0F1
:10074600FDBAFF0DBDFF0A90002EE508F0E509A3EE
:10075600F0900022E0704B90002CE0FAA3E0FDC37D
:10076600E5089AE5099D503A90002CEAC39508F0F1
:10077600ED9509A3F090002CE0FAA3E0FD8A068D22
:10078600071ABAFF011DEE4F6010758220C005C022
:1007960002120386D002D00580E390002CEAF0ED29
:1007A600A3F090002EE0F50BA3E0F50C90000EE010
:1007B600FAA3E0FDA3E0FF8A828D838FF0120DA0DD
:1007C600F50A603CC3E4950B7480850CF063F080F9
:1007D60095F0502C150B74FFB50B02150C850A828B
:1007E60012038690000EE0FAA3E0FDA3E0FF0ABA2A
:1007F60000010D90000EEAF0EDA3F0EFA3F080AC3F
:10080600900022E0700302092790002CE0FEA3E08E
:10081600FFC3E5089EE5099F400302092790002CC7
:10082600EEC39508F0EF9509A3F090002CE0FEA327
:10083600E0FF8E028F051EBEFF011FEA4D70030208
:10084600091F758220C007C006120386D006D0078E
:1008560080E090001FE024FDFDF08D01870D0987E3
:100866000E09870F191990000EE50DF0E50EA3F09D
:10087600E50FA3F0900010E0FDBD80004008900059
:10088600327443F08020BD600040089000327450FE
:10089600F08013BD400040089000327449F0800695
:1008A6009000327458F0900032E0FDF582C00512D7
:1008B600038675823A120386758230120386758224
:1008C60078120386D005BD4902800EBD500280090C
:1008D60090000FE0F5821203E190000EE0F582121F
:1008E60003E1803D9000267401F090002B740AF01D
:1008F600802F90002B7408F0802790002B740AF04C
:10090600801F90002B7410F080179000297401F05E
:10091600800F8B82120386800890002CEEF0EFA3E6
:10092600F0900029E0607190001FE024FCFFF08F3A
:100936000187030987050987060987071919199089
:10094600000EEBF0EDA3F0EEA3F0EFA3F090000E97
:1009560074D5F0740FA3F07480A3F090000EE0F548
:100966000DA3E0F50EA3E0F50F7401250DFAE435AD
:100976000EFBAF0F90000EEAF0EBA3F0EFA3F085AD
:100986000D82850E83850FF0120DA0FF7003020401
:10099600928F8212038680C390002BE070030204BC
:1009A60092900027E0604790001FE014F9F0870757
:1009B6007E007D007B0090000EEFF0EEA3F0EDA32D
:1009C600F0EBA3F0900026E06003020A6A90000EA6
:1009D600E0FBA3E0A3E0A3E07D007E007F009000A3
:1009E6000EEBF0EDA3F0EEA3F0EFA3F0807690000F
:1009F60028E0602890001FE024FCFFF08F018703A9
:100A060009870509870609870719191990000EEB4A
:100A1600F0EDA3F0EEA3F0EFA3F0804890001FE006
:100A260024FEFFF08F01870609870719EF3395E04B
:100A3600FDFB90000EEEF0EFA3F0EDA3F0EBA3F0BC
:100A4600900026E0701E90000EE0FBA3E0FDA3E000
:100A5600A3E07E007F0090000EEBF0EDA3F0EEA386
:100A6600F0EFA3F0900026E0604190000EE0FBA3BB
:100A7600E0FDA3E0FEA3E0FF30E72B90000EE0FBD5
:100A8600A3E0FDA3E0FEA3E0FFC3E49BFBE49DFD22
:100A9600E49EFEE49FFF90000EEBF0EDA3F0EEA3C4
:100AA600F0EFA3F08005900026E4F090002A740190
:100AB600F090002BE0F50B751038751100E4F50881
:100AC600F509900012E4F0850B821203FD90002ACE
:100AD600E07033900012E0C454F0F50D900012E07F
:100AE600C4540F450DF50D851082851183E0FFE591
:100AF6000D4207851082851183EFF0151074FFB53E
:100B060010021511800C900012E0FF8510828511ED
:100B160083F00508E4B50802050990002AE0B4014F
:100B260000E433F090000EE0FAA3E0FBA3E0FEA39E
:100B3600E0FFEA4B4E4F708A900039E510F0E51160
:100B4600A3F0900030E508F0E509A3F090002CE052
:100B5600F5F0A3E045F0700990002C7401F0E4A3D1
:100B6600F0900023E0FFE07047900022E07041859E
:100B7600081085091190002CE0FAA3E0FBC007AF2E
:100B8600100F8F067F00C3EE9AEF9BD007501975A2
:100B96008220C007C003C002120386D002D003D051
:100BA600071ABAFF011B80D590002CEAF0EBA3F0E0
:100BB600900026E0602075822DC007120386D007BC
:100BC60090002CE024FFFDA3E034FFFE90002CED06
:100BD600F0EEA3F08056900030E0F5F0A3E045F08B
:100BE600604A900024E0602075822BC007120386BD
:100BF600D00790002CE024FFFDA3E034FFFE900018
:100C06002CEDF0EEA3F08024900025E0601E7582A6
:100C160020C007120386D00790002CE024FFFDA316
:100C2600E034FFFE90002CEDF0EEA3F0900022E001
:100C36007048900030E0F510A3E0F51190002CE02C
:100C4600FAA3E0FBC0078A068B071ABAFF011BC38B
:100C5600E5109EE5119FD0075053EF60067D307E6C
:100C66000080047D207E008D82C007C003C0021272
:100C76000386D002D003D00780CA90002CE0FEA3E2
:100C8600E0FF900030E0F510A3E0F511C3E5109EFB
:100C9600E5119F500F90002CEEC39510F0EF9511C3
:100CA600A3F0801190002CE4F0A3F0800890002CB3
:100CB600EAF0EBA3F0900039E0FEA3E0FF900030ED
:100CC600E0F510A3E0F511AA10AD11151074FFB5EB
:100CD60010021511EA4D604590002AE0B40100E4C7
:100CE60033F090002AE070140EBE00010F8E828F42
:100CF60083E0C4540FFD900012F0800E8E828F8325
:100D0600E0FD53050F900012EDF0900012E0F58221
:100D1600C007C0061203C1D006D00780AA900022E1
:100D2600E0700302049290002CE0FEA3E0FF8E0325
:100D36008F051EBEFF011FEB4D70030204927582E4
:100D460020C007C006120386D006D00780E08C823A
:100D5600120386020492900013E0FEA3E08E82F551
:020D66008322E6
:0B0FD5003C4E4F20464C4F41543E0064
:100D6800AA82AB83120DA06003A380F8C3E5829A20
:100D7800F582E5839BF58322AA83AB828BF09000F2
:100D88003BE0A4F8A9F08AF0E0A429F98BF0A3E0ED
:080D9800A429F58388822222C0
:0D000600758113120DBCE58260030200033A
:100DA00020F71430F6148883A88220F507E6A8837C
:100DB00075830022E280F7E49322E022758200220C
:00000001FF
